{
  "_format": "hh-sol-artifact-1",
  "contractName": "ConverseNFTETH",
  "sourceName": "contracts/ConverseNftEthereumChain.sol",
  "abi": [
    {
      "inputs": [
        {
          "internalType": "string",
          "name": "chainName_",
          "type": "string"
        },
        {
          "internalType": "address",
          "name": "gateway",
          "type": "address"
        },
        {
          "internalType": "contract IAxelarGasReceiver",
          "name": "receiver",
          "type": "address"
        }
      ],
      "stateMutability": "nonpayable",
      "type": "constructor"
    },
    {
      "inputs": [],
      "name": "NotApprovedByGateway",
      "type": "error"
    },
    {
      "anonymous": false,
      "inputs": [
        {
          "indexed": false,
          "internalType": "string",
          "name": "fromChain",
          "type": "string"
        },
        {
          "indexed": false,
          "internalType": "string",
          "name": "toChain",
          "type": "string"
        },
        {
          "indexed": false,
          "internalType": "uint256",
          "name": "tokenId",
          "type": "uint256"
        },
        {
          "indexed": false,
          "internalType": "address",
          "name": "sourceAddress",
          "type": "address"
        },
        {
          "indexed": false,
          "internalType": "address",
          "name": "destinationAddress",
          "type": "address"
        },
        {
          "indexed": false,
          "internalType": "uint256",
          "name": "date",
          "type": "uint256"
        }
      ],
      "name": "ConverseNFT",
      "type": "event"
    },
    {
      "anonymous": false,
      "inputs": [
        {
          "indexed": true,
          "internalType": "address",
          "name": "previousOwner",
          "type": "address"
        },
        {
          "indexed": true,
          "internalType": "address",
          "name": "newOwner",
          "type": "address"
        }
      ],
      "name": "OwnershipTransferred",
      "type": "event"
    },
    {
      "anonymous": false,
      "inputs": [
        {
          "indexed": false,
          "internalType": "string",
          "name": "fromChain",
          "type": "string"
        },
        {
          "indexed": false,
          "internalType": "uint256",
          "name": "tokenId",
          "type": "uint256"
        },
        {
          "indexed": false,
          "internalType": "address",
          "name": "fromAddress",
          "type": "address"
        },
        {
          "indexed": false,
          "internalType": "uint256",
          "name": "date",
          "type": "uint256"
        }
      ],
      "name": "ReceiveNFT",
      "type": "event"
    },
    {
      "inputs": [
        {
          "internalType": "string",
          "name": "chain",
          "type": "string"
        },
        {
          "internalType": "string",
          "name": "linker",
          "type": "string"
        }
      ],
      "name": "addLinker",
      "outputs": [],
      "stateMutability": "nonpayable",
      "type": "function"
    },
    {
      "inputs": [],
      "name": "chainName",
      "outputs": [
        {
          "internalType": "string",
          "name": "",
          "type": "string"
        }
      ],
      "stateMutability": "view",
      "type": "function"
    },
    {
      "inputs": [
        {
          "internalType": "bytes32",
          "name": "commandId",
          "type": "bytes32"
        },
        {
          "internalType": "string",
          "name": "sourceChain",
          "type": "string"
        },
        {
          "internalType": "string",
          "name": "sourceAddress",
          "type": "string"
        },
        {
          "internalType": "bytes",
          "name": "payload",
          "type": "bytes"
        }
      ],
      "name": "execute",
      "outputs": [],
      "stateMutability": "nonpayable",
      "type": "function"
    },
    {
      "inputs": [
        {
          "internalType": "bytes32",
          "name": "commandId",
          "type": "bytes32"
        },
        {
          "internalType": "string",
          "name": "sourceChain",
          "type": "string"
        },
        {
          "internalType": "string",
          "name": "sourceAddress",
          "type": "string"
        },
        {
          "internalType": "bytes",
          "name": "payload",
          "type": "bytes"
        },
        {
          "internalType": "string",
          "name": "tokenSymbol",
          "type": "string"
        },
        {
          "internalType": "uint256",
          "name": "amount",
          "type": "uint256"
        }
      ],
      "name": "executeWithToken",
      "outputs": [],
      "stateMutability": "nonpayable",
      "type": "function"
    },
    {
      "inputs": [],
      "name": "gateway",
      "outputs": [
        {
          "internalType": "contract IAxelarGateway",
          "name": "",
          "type": "address"
        }
      ],
      "stateMutability": "view",
      "type": "function"
    },
    {
      "inputs": [
        {
          "internalType": "string",
          "name": "",
          "type": "string"
        }
      ],
      "name": "linkers",
      "outputs": [
        {
          "internalType": "string",
          "name": "",
          "type": "string"
        }
      ],
      "stateMutability": "view",
      "type": "function"
    },
    {
      "inputs": [],
      "name": "owner",
      "outputs": [
        {
          "internalType": "address",
          "name": "",
          "type": "address"
        }
      ],
      "stateMutability": "view",
      "type": "function"
    },
    {
      "inputs": [],
      "name": "renounceOwnership",
      "outputs": [],
      "stateMutability": "nonpayable",
      "type": "function"
    },
    {
      "inputs": [
        {
          "internalType": "address",
          "name": "operator",
          "type": "address"
        },
        {
          "internalType": "uint256",
          "name": "tokenId",
          "type": "uint256"
        },
        {
          "internalType": "string",
          "name": "destinationChain",
          "type": "string"
        },
        {
          "internalType": "address",
          "name": "destinationAddress",
          "type": "address"
        },
        {
          "internalType": "uint256",
          "name": "amountFree",
          "type": "uint256"
        }
      ],
      "name": "sendNFT",
      "outputs": [],
      "stateMutability": "payable",
      "type": "function"
    },
    {
      "inputs": [
        {
          "internalType": "address",
          "name": "newOwner",
          "type": "address"
        }
      ],
      "name": "transferOwnership",
      "outputs": [],
      "stateMutability": "nonpayable",
      "type": "function"
    },
    {
      "inputs": [],
      "name": "withdraw",
      "outputs": [],
      "stateMutability": "nonpayable",
      "type": "function"
    }
  ],
  "bytecode": "0x60806040523480156200001157600080fd5b5060405162001728380380620017288339810160408190526200003491620001cb565b600080546001600160a01b0319166001600160a01b038416179055620000616200005b3390565b620000a0565b825162000076906004906020860190620000f2565b50600380546001600160a01b0319166001600160a01b0392909216919091179055506200030b9050565b600180546001600160a01b038381166001600160a01b0319831681179093556040519116919082907f8be0079c531659141344cd1fd0a4f28419497f9722a3daafe3b4186f6b6457e090600090a35050565b8280546200010090620002ce565b90600052602060002090601f0160209004810192826200012457600085556200016f565b82601f106200013f57805160ff19168380011785556200016f565b828001600101855582156200016f579182015b828111156200016f57825182559160200191906001019062000152565b506200017d92915062000181565b5090565b5b808211156200017d576000815560010162000182565b634e487b7160e01b600052604160045260246000fd5b80516001600160a01b0381168114620001c657600080fd5b919050565b600080600060608486031215620001e157600080fd5b83516001600160401b0380821115620001f957600080fd5b818601915086601f8301126200020e57600080fd5b81518181111562000223576200022362000198565b604051601f8201601f19908116603f011681019083821181831017156200024e576200024e62000198565b816040528281526020935089848487010111156200026b57600080fd5b600091505b828210156200028f578482018401518183018501529083019062000270565b82821115620002a15760008484830101525b9650620002b3915050868201620001ae565b93505050620002c560408501620001ae565b90509250925092565b600181811c90821680620002e357607f821691505b602082108114156200030557634e487b7160e01b600052602260045260246000fd5b50919050565b61140d806200031b6000396000f3fe60806040526004361061009c5760003560e01c80634916065811610064578063491606581461014a578063715018a61461016a5780638afe18961461017f5780638da5cb5b1461019f5780639b15a0a7146101bd578063f2fde38b146101dd57600080fd5b8063116191b6146100a15780631a98b2e0146100de5780631c93b03a146101005780633b98c7ea146101225780633ccfd60b14610135575b600080fd5b3480156100ad57600080fd5b506000546100c1906001600160a01b031681565b6040516001600160a01b0390911681526020015b60405180910390f35b3480156100ea57600080fd5b506100fe6100f9366004610b73565b6101fd565b005b34801561010c57600080fd5b5061011561037f565b6040516100d59190610ca9565b6100fe610130366004610d7b565b61040d565b34801561014157600080fd5b506100fe610487565b34801561015657600080fd5b506100fe610165366004610def565b6104e9565b34801561017657600080fd5b506100fe61062c565b34801561018b57600080fd5b5061011561019a366004610e93565b610662565b3480156101ab57600080fd5b506001546001600160a01b03166100c1565b3480156101c957600080fd5b506100fe6101d8366004610ed0565b610686565b3480156101e957600080fd5b506100fe6101f8366004610f34565b6106bd565b6000858560405161020f929190610f51565b604051908190038120600054631876eed960e01b83529092506001600160a01b031690631876eed990610256908e908e908e908e908e9089908d908d908d90600401610f8a565b602060405180830381600087803b15801561027057600080fd5b505af1158015610284573d6000803e3d6000fd5b505050506040513d601f19601f820116820180604052508101906102a89190610fe9565b6102c557604051631403112d60e21b815260040160405180910390fd5b6103728a8a8080601f01602080910402602001604051908101604052809392919081815260200183838082843760009201919091525050604080516020601f8e018190048102820181019092528c815292508c91508b908190840183828082843760009201919091525050604080516020601f8b018190048102820181019092528981528c93508b9250908a908a90819084018382808284376000920191909152508a9250610755915050565b5050505050505050505050565b6004805461038c9061100b565b80601f01602080910402602001604051908101604052809291908181526020018280546103b89061100b565b80156104055780601f106103da57610100808354040283529160200191610405565b820191906000526020600020905b8154815290600101906020018083116103e857829003601f168201915b505050505081565b6040516323b872dd60e01b8152336004820152306024820152604481018590526001600160a01b038616906323b872dd90606401600060405180830381600087803b15801561045b57600080fd5b505af115801561046f573d6000803e3d6000fd5b50505050610480858585858561075d565b5050505050565b6001546001600160a01b031633146104ba5760405162461bcd60e51b81526004016104b190611046565b60405180910390fd5b60405133904780156108fc02916000818181858888f193505050501580156104e6573d6000803e3d6000fd5b50565b600082826040516104fb929190610f51565b604051908190038120600054635f6970c360e01b83529092506001600160a01b031690635f6970c39061053c908b908b908b908b908b90899060040161107b565b602060405180830381600087803b15801561055657600080fd5b505af115801561056a573d6000803e3d6000fd5b505050506040513d601f19601f8201168201806040525081019061058e9190610fe9565b6105ab57604051631403112d60e21b815260040160405180910390fd5b61062287878080601f01602080910402602001604051908101604052809392919081815260200183838082843760009201919091525050604080516020601f8b0181900481028201810190925289815292508991508890819084018382808284376000920191909152508892508791506108fa9050565b5050505050505050565b6001546001600160a01b031633146106565760405162461bcd60e51b81526004016104b190611046565b6106606000610a3f565b565b80516020818301810180516002825292820191909301209152805461038c9061100b565b8060028360405161069791906110bc565b908152602001604051809103902090805190602001906106b8929190610a91565b505050565b6001546001600160a01b031633146106e75760405162461bcd60e51b81526004016104b190611046565b6001600160a01b03811661074c5760405162461bcd60e51b815260206004820152602660248201527f4f776e61626c653a206e6577206f776e657220697320746865207a65726f206160448201526564647265737360d01b60648201526084016104b1565b6104e681610a3f565b505050505050565b600061076982346110d8565b90506000600487878633604051602001610787959493929190611174565b60408051601f19818403018152908290526003549092506001600160a01b031690630c93e3bb908490309089906002906107c29083906110bc565b9081526040519081900360200181206001600160e01b031960e087901b1682526107f4939291889033906004016111b9565b6000604051808303818588803b15801561080d57600080fd5b505af1158015610821573d6000803e3d6000fd5b50506000546040516001600160a01b039091169350631c92115f925088915060029061084e9083906110bc565b9081526040519081900360200181206001600160e01b031960e085901b16825261087d92918690600401611217565b600060405180830381600087803b15801561089757600080fd5b505af11580156108ab573d6000803e3d6000fd5b505050507f29d349391365e822afe3b14c7ac01aced909583e03f6454eb4fa8d4d8a6678fd600486883388426040516108e99695949392919061125a565b60405180910390a150505050505050565b60028460405161090a91906110bc565b908152604051908190036020018120610922916112ac565b604051809103902083805190602001201461096e5760405162461bcd60e51b815260206004820152600c60248201526b2727aa2fa0afa624a725a2a960a11b60448201526064016104b1565b606060008080806109818688018861131e565b6040516323b872dd60e01b81523060048201526001600160a01b03808416602483015260448201859052959a5093985091965094509250908516906323b872dd90606401600060405180830381600087803b1580156109df57600080fd5b505af11580156109f3573d6000803e3d6000fd5b505050507f612762b4a1128abb0969976a012a4200847caba55bc9b00494134d6ed0ad85de89848342604051610a2c949392919061139f565b60405180910390a1505050505050505050565b600180546001600160a01b038381166001600160a01b0319831681179093556040519116919082907f8be0079c531659141344cd1fd0a4f28419497f9722a3daafe3b4186f6b6457e090600090a35050565b828054610a9d9061100b565b90600052602060002090601f016020900481019282610abf5760008555610b05565b82601f10610ad857805160ff1916838001178555610b05565b82800160010185558215610b05579182015b82811115610b05578251825591602001919060010190610aea565b50610b11929150610b15565b5090565b5b80821115610b115760008155600101610b16565b60008083601f840112610b3c57600080fd5b50813567ffffffffffffffff811115610b5457600080fd5b602083019150836020828501011115610b6c57600080fd5b9250929050565b60008060008060008060008060008060c08b8d031215610b9257600080fd5b8a35995060208b013567ffffffffffffffff80821115610bb157600080fd5b610bbd8e838f01610b2a565b909b50995060408d0135915080821115610bd657600080fd5b610be28e838f01610b2a565b909950975060608d0135915080821115610bfb57600080fd5b610c078e838f01610b2a565b909750955060808d0135915080821115610c2057600080fd5b50610c2d8d828e01610b2a565b9150809450508092505060a08b013590509295989b9194979a5092959850565b60005b83811015610c68578181015183820152602001610c50565b83811115610c77576000848401525b50505050565b60008151808452610c95816020860160208601610c4d565b601f01601f19169290920160200192915050565b602081526000610cbc6020830184610c7d565b9392505050565b6001600160a01b03811681146104e657600080fd5b634e487b7160e01b600052604160045260246000fd5b600082601f830112610cff57600080fd5b813567ffffffffffffffff80821115610d1a57610d1a610cd8565b604051601f8301601f19908116603f01168101908282118183101715610d4257610d42610cd8565b81604052838152866020858801011115610d5b57600080fd5b836020870160208301376000602085830101528094505050505092915050565b600080600080600060a08688031215610d9357600080fd5b8535610d9e81610cc3565b945060208601359350604086013567ffffffffffffffff811115610dc157600080fd5b610dcd88828901610cee565b9350506060860135610dde81610cc3565b949793965091946080013592915050565b60008060008060008060006080888a031215610e0a57600080fd5b87359650602088013567ffffffffffffffff80821115610e2957600080fd5b610e358b838c01610b2a565b909850965060408a0135915080821115610e4e57600080fd5b610e5a8b838c01610b2a565b909650945060608a0135915080821115610e7357600080fd5b50610e808a828b01610b2a565b989b979a50959850939692959293505050565b600060208284031215610ea557600080fd5b813567ffffffffffffffff811115610ebc57600080fd5b610ec884828501610cee565b949350505050565b60008060408385031215610ee357600080fd5b823567ffffffffffffffff80821115610efb57600080fd5b610f0786838701610cee565b93506020850135915080821115610f1d57600080fd5b50610f2a85828601610cee565b9150509250929050565b600060208284031215610f4657600080fd5b8135610cbc81610cc3565b8183823760009101908152919050565b81835281816020850137506000828201602090810191909152601f909101601f19169091010190565b89815260c060208201526000610fa460c083018a8c610f61565b8281036040840152610fb781898b610f61565b90508660608401528281036080840152610fd2818688610f61565b9150508260a08301529a9950505050505050505050565b600060208284031215610ffb57600080fd5b81518015158114610cbc57600080fd5b600181811c9082168061101f57607f821691505b6020821081141561104057634e487b7160e01b600052602260045260246000fd5b50919050565b6020808252818101527f4f776e61626c653a2063616c6c6572206973206e6f7420746865206f776e6572604082015260600190565b868152608060208201526000611095608083018789610f61565b82810360408401526110a8818688610f61565b915050826060830152979650505050505050565b600082516110ce818460208701610c4d565b9190910192915050565b6000828210156110f857634e487b7160e01b600052601160045260246000fd5b500390565b6000815461110a8161100b565b808552602060018381168015611127576001811461113b57611169565b60ff19851688840152604088019550611169565b866000528260002060005b858110156111615781548a8201860152908301908401611146565b890184019650505b505050505092915050565b60a08152600061118760a08301886110fd565b6001600160a01b0396871660208401526040830195909552509184166060830152909216608090920191909152919050565b600060018060a01b03808816835260a060208401526111db60a0840188610c7d565b83810360408501526111ed81886110fd565b905083810360608501526112018187610c7d565b9250508084166080840152509695505050505050565b60608152600061122a6060830186610c7d565b828103602084015261123c81866110fd565b905082810360408401526112508185610c7d565b9695505050505050565b60c08152600061126d60c08301896110fd565b828103602084015261127f8189610c7d565b604084019790975250506001600160a01b03938416606082015291909216608082015260a0015292915050565b60008083546112ba8161100b565b600182811680156112d257600181146112e357611312565b60ff19841687528287019450611312565b8760005260208060002060005b858110156113095781548a8201529084019082016112f0565b50505082870194505b50929695505050505050565b600080600080600060a0868803121561133657600080fd5b853567ffffffffffffffff81111561134d57600080fd5b61135988828901610cee565b955050602086013561136a81610cc3565b935060408601359250606086013561138181610cc3565b9150608086013561139181610cc3565b809150509295509295909350565b6080815260006113b26080830187610c7d565b6020830195909552506001600160a01b0392909216604083015260609091015291905056fea2646970667358221220df788f527cfaebd0822fe8e35a3296b2f7b82ea247f31480b14f0686d7eb23c264736f6c63430008090033",
  "linkReferences": {},
  "deployedLinkReferences": {}
}