{
  "_format": "hh-sol-artifact-1",
  "contractName": "ConverseNFTETH",
  "sourceName": "contracts/ConverseNftEthereumChain.sol",
  "abi": [
    {
      "inputs": [
        {
          "internalType": "string",
          "name": "chainName_",
          "type": "string"
        },
        {
          "internalType": "address",
          "name": "gateway",
          "type": "address"
        },
        {
          "internalType": "contract IAxelarGasReceiver",
          "name": "receiver",
          "type": "address"
        }
      ],
      "stateMutability": "nonpayable",
      "type": "constructor"
    },
    {
      "inputs": [],
      "name": "NotApprovedByGateway",
      "type": "error"
    },
    {
      "anonymous": false,
      "inputs": [
        {
          "indexed": false,
          "internalType": "string",
          "name": "fromChain",
          "type": "string"
        },
        {
          "indexed": false,
          "internalType": "string",
          "name": "toChain",
          "type": "string"
        },
        {
          "indexed": false,
          "internalType": "uint256",
          "name": "tokenId",
          "type": "uint256"
        },
        {
          "indexed": false,
          "internalType": "address",
          "name": "sourceAddress",
          "type": "address"
        },
        {
          "indexed": false,
          "internalType": "address",
          "name": "destinationAddress",
          "type": "address"
        },
        {
          "indexed": false,
          "internalType": "uint256",
          "name": "date",
          "type": "uint256"
        }
      ],
      "name": "ConverseNFT",
      "type": "event"
    },
    {
      "anonymous": false,
      "inputs": [
        {
          "indexed": false,
          "internalType": "string",
          "name": "fromChain",
          "type": "string"
        },
        {
          "indexed": false,
          "internalType": "uint256",
          "name": "tokenId",
          "type": "uint256"
        },
        {
          "indexed": false,
          "internalType": "address",
          "name": "fromAddress",
          "type": "address"
        },
        {
          "indexed": false,
          "internalType": "uint256",
          "name": "date",
          "type": "uint256"
        }
      ],
      "name": "ReceiveNFT",
      "type": "event"
    },
    {
      "inputs": [
        {
          "internalType": "string",
          "name": "chain",
          "type": "string"
        },
        {
          "internalType": "string",
          "name": "linker",
          "type": "string"
        }
      ],
      "name": "addLinker",
      "outputs": [],
      "stateMutability": "nonpayable",
      "type": "function"
    },
    {
      "inputs": [],
      "name": "chainName",
      "outputs": [
        {
          "internalType": "string",
          "name": "",
          "type": "string"
        }
      ],
      "stateMutability": "view",
      "type": "function"
    },
    {
      "inputs": [
        {
          "internalType": "bytes32",
          "name": "commandId",
          "type": "bytes32"
        },
        {
          "internalType": "string",
          "name": "sourceChain",
          "type": "string"
        },
        {
          "internalType": "string",
          "name": "sourceAddress",
          "type": "string"
        },
        {
          "internalType": "bytes",
          "name": "payload",
          "type": "bytes"
        }
      ],
      "name": "execute",
      "outputs": [],
      "stateMutability": "nonpayable",
      "type": "function"
    },
    {
      "inputs": [
        {
          "internalType": "bytes32",
          "name": "commandId",
          "type": "bytes32"
        },
        {
          "internalType": "string",
          "name": "sourceChain",
          "type": "string"
        },
        {
          "internalType": "string",
          "name": "sourceAddress",
          "type": "string"
        },
        {
          "internalType": "bytes",
          "name": "payload",
          "type": "bytes"
        },
        {
          "internalType": "string",
          "name": "tokenSymbol",
          "type": "string"
        },
        {
          "internalType": "uint256",
          "name": "amount",
          "type": "uint256"
        }
      ],
      "name": "executeWithToken",
      "outputs": [],
      "stateMutability": "nonpayable",
      "type": "function"
    },
    {
      "inputs": [],
      "name": "gateway",
      "outputs": [
        {
          "internalType": "contract IAxelarGateway",
          "name": "",
          "type": "address"
        }
      ],
      "stateMutability": "view",
      "type": "function"
    },
    {
      "inputs": [
        {
          "internalType": "string",
          "name": "",
          "type": "string"
        }
      ],
      "name": "linkers",
      "outputs": [
        {
          "internalType": "string",
          "name": "",
          "type": "string"
        }
      ],
      "stateMutability": "view",
      "type": "function"
    },
    {
      "inputs": [
        {
          "internalType": "address",
          "name": "operator",
          "type": "address"
        },
        {
          "internalType": "uint256",
          "name": "tokenId",
          "type": "uint256"
        },
        {
          "internalType": "string",
          "name": "destinationChain",
          "type": "string"
        },
        {
          "internalType": "address",
          "name": "destinationAddress",
          "type": "address"
        }
      ],
      "name": "sendNFT",
      "outputs": [],
      "stateMutability": "payable",
      "type": "function"
    }
  ],
  "bytecode": "0x60806040523480156200001157600080fd5b506040516200142038038062001420833981016040819052620000349162000167565b600080546001600160a01b0319166001600160a01b0384161790558251620000649060039060208601906200008e565b50600280546001600160a01b0319166001600160a01b039290921691909117905550620002a79050565b8280546200009c906200026a565b90600052602060002090601f016020900481019282620000c057600085556200010b565b82601f10620000db57805160ff19168380011785556200010b565b828001600101855582156200010b579182015b828111156200010b578251825591602001919060010190620000ee565b50620001199291506200011d565b5090565b5b808211156200011957600081556001016200011e565b634e487b7160e01b600052604160045260246000fd5b80516001600160a01b03811681146200016257600080fd5b919050565b6000806000606084860312156200017d57600080fd5b83516001600160401b03808211156200019557600080fd5b818601915086601f830112620001aa57600080fd5b815181811115620001bf57620001bf62000134565b604051601f8201601f19908116603f01168101908382118183101715620001ea57620001ea62000134565b816040528281526020935089848487010111156200020757600080fd5b600091505b828210156200022b57848201840151818301850152908301906200020c565b828211156200023d5760008484830101525b96506200024f9150508682016200014a565b9350505062000261604085016200014a565b90509250925092565b600181811c908216806200027f57607f821691505b60208210811415620002a157634e487b7160e01b600052602260045260246000fd5b50919050565b61116980620002b76000396000f3fe6080604052600436106100705760003560e01c8063491606581161004e57806349160658146100f65780638afe18961461011657806393349876146101365780639b15a0a71461014957600080fd5b8063116191b6146100755780631a98b2e0146100b25780631c93b03a146100d4575b600080fd5b34801561008157600080fd5b50600054610095906001600160a01b031681565b6040516001600160a01b0390911681526020015b60405180910390f35b3480156100be57600080fd5b506100d26100cd36600461094f565b610169565b005b3480156100e057600080fd5b506100e96102eb565b6040516100a99190610a81565b34801561010257600080fd5b506100d2610111366004610a9b565b610379565b34801561012257600080fd5b506100e9610131366004610be2565b6104bc565b6100d2610144366004610c37565b6104e0565b34801561015557600080fd5b506100d2610164366004610ca3565b610558565b6000858560405161017b929190610d07565b604051908190038120600054631876eed960e01b83529092506001600160a01b031690631876eed9906101c2908e908e908e908e908e9089908d908d908d90600401610d40565b602060405180830381600087803b1580156101dc57600080fd5b505af11580156101f0573d6000803e3d6000fd5b505050506040513d601f19601f820116820180604052508101906102149190610d9f565b61023157604051631403112d60e21b815260040160405180910390fd5b6102de8a8a8080601f01602080910402602001604051908101604052809392919081815260200183838082843760009201919091525050604080516020601f8e018190048102820181019092528c815292508c91508b908190840183828082843760009201919091525050604080516020601f8b018190048102820181019092528981528c93508b9250908a908a90819084018382808284376000920191909152508a925061058f915050565b5050505050505050505050565b600380546102f890610dc1565b80601f016020809104026020016040519081016040528092919081815260200182805461032490610dc1565b80156103715780601f1061034657610100808354040283529160200191610371565b820191906000526020600020905b81548152906001019060200180831161035457829003601f168201915b505050505081565b6000828260405161038b929190610d07565b604051908190038120600054635f6970c360e01b83529092506001600160a01b031690635f6970c3906103cc908b908b908b908b908b908990600401610dfc565b602060405180830381600087803b1580156103e657600080fd5b505af11580156103fa573d6000803e3d6000fd5b505050506040513d601f19601f8201168201806040525081019061041e9190610d9f565b61043b57604051631403112d60e21b815260040160405180910390fd5b6104b287878080601f01602080910402602001604051908101604052809392919081815260200183838082843760009201919091525050604080516020601f8b0181900481028201810190925289815292508991508890819084018382808284376000920191909152508892508791506105979050565b5050505050505050565b8051602081830181018051600182529282019190930120915280546102f890610dc1565b6040516323b872dd60e01b8152336004820152306024820152604481018490526001600160a01b038516906323b872dd90606401600060405180830381600087803b15801561052e57600080fd5b505af1158015610542573d6000803e3d6000fd5b50505050610552848484846106e0565b50505050565b806001836040516105699190610e3d565b9081526020016040518091039020908051906020019061058a92919061086d565b505050565b505050505050565b6001846040516105a79190610e3d565b9081526040519081900360200181206105bf91610e59565b604051809103902083805190602001201461060f5760405162461bcd60e51b815260206004820152600c60248201526b2727aa2fa0afa624a725a2a960a11b604482015260640160405180910390fd5b6060600080808061062286880188610ecb565b6040516323b872dd60e01b81523060048201526001600160a01b03808416602483015260448201859052959a5093985091965094509250908516906323b872dd90606401600060405180830381600087803b15801561068057600080fd5b505af1158015610694573d6000803e3d6000fd5b505050507f612762b4a1128abb0969976a012a4200847caba55bc9b00494134d6ed0ad85de898483426040516106cd9493929190610f4c565b60405180910390a1505050505050505050565b60006003858584336040516020016106fc959493929190610ffb565b60408051601f19818403018152908290526002549092506001600160a01b031690630c93e3bb90349030908790600190610737908390610e3d565b9081526040519081900360200181206001600160e01b031960e087901b16825261076993929188903390600401611040565b6000604051808303818588803b15801561078257600080fd5b505af1158015610796573d6000803e3d6000fd5b50506000546040516001600160a01b039091169350631c92115f92508691506001906107c3908390610e3d565b9081526040519081900360200181206001600160e01b031960e085901b1682526107f29291869060040161109e565b600060405180830381600087803b15801561080c57600080fd5b505af1158015610820573d6000803e3d6000fd5b505050507f29d349391365e822afe3b14c7ac01aced909583e03f6454eb4fa8d4d8a6678fd6003848633864260405161085e969594939291906110e1565b60405180910390a15050505050565b82805461087990610dc1565b90600052602060002090601f01602090048101928261089b57600085556108e1565b82601f106108b457805160ff19168380011785556108e1565b828001600101855582156108e1579182015b828111156108e15782518255916020019190600101906108c6565b506108ed9291506108f1565b5090565b5b808211156108ed57600081556001016108f2565b60008083601f84011261091857600080fd5b50813567ffffffffffffffff81111561093057600080fd5b60208301915083602082850101111561094857600080fd5b9250929050565b60008060008060008060008060008060c08b8d03121561096e57600080fd5b8a35995060208b013567ffffffffffffffff8082111561098d57600080fd5b6109998e838f01610906565b909b50995060408d01359150808211156109b257600080fd5b6109be8e838f01610906565b909950975060608d01359150808211156109d757600080fd5b6109e38e838f01610906565b909750955060808d01359150808211156109fc57600080fd5b50610a098d828e01610906565b9150809450508092505060a08b013590509295989b9194979a5092959850565b60005b83811015610a44578181015183820152602001610a2c565b838111156105525750506000910152565b60008151808452610a6d816020860160208601610a29565b601f01601f19169290920160200192915050565b602081526000610a946020830184610a55565b9392505050565b60008060008060008060006080888a031215610ab657600080fd5b87359650602088013567ffffffffffffffff80821115610ad557600080fd5b610ae18b838c01610906565b909850965060408a0135915080821115610afa57600080fd5b610b068b838c01610906565b909650945060608a0135915080821115610b1f57600080fd5b50610b2c8a828b01610906565b989b979a50959850939692959293505050565b634e487b7160e01b600052604160045260246000fd5b600082601f830112610b6657600080fd5b813567ffffffffffffffff80821115610b8157610b81610b3f565b604051601f8301601f19908116603f01168101908282118183101715610ba957610ba9610b3f565b81604052838152866020858801011115610bc257600080fd5b836020870160208301376000602085830101528094505050505092915050565b600060208284031215610bf457600080fd5b813567ffffffffffffffff811115610c0b57600080fd5b610c1784828501610b55565b949350505050565b6001600160a01b0381168114610c3457600080fd5b50565b60008060008060808587031215610c4d57600080fd5b8435610c5881610c1f565b935060208501359250604085013567ffffffffffffffff811115610c7b57600080fd5b610c8787828801610b55565b9250506060850135610c9881610c1f565b939692955090935050565b60008060408385031215610cb657600080fd5b823567ffffffffffffffff80821115610cce57600080fd5b610cda86838701610b55565b93506020850135915080821115610cf057600080fd5b50610cfd85828601610b55565b9150509250929050565b8183823760009101908152919050565b81835281816020850137506000828201602090810191909152601f909101601f19169091010190565b89815260c060208201526000610d5a60c083018a8c610d17565b8281036040840152610d6d81898b610d17565b90508660608401528281036080840152610d88818688610d17565b9150508260a08301529a9950505050505050505050565b600060208284031215610db157600080fd5b81518015158114610a9457600080fd5b600181811c90821680610dd557607f821691505b60208210811415610df657634e487b7160e01b600052602260045260246000fd5b50919050565b868152608060208201526000610e16608083018789610d17565b8281036040840152610e29818688610d17565b915050826060830152979650505050505050565b60008251610e4f818460208701610a29565b9190910192915050565b6000808354610e6781610dc1565b60018281168015610e7f5760018114610e9057610ebf565b60ff19841687528287019450610ebf565b8760005260208060002060005b85811015610eb65781548a820152908401908201610e9d565b50505082870194505b50929695505050505050565b600080600080600060a08688031215610ee357600080fd5b853567ffffffffffffffff811115610efa57600080fd5b610f0688828901610b55565b9550506020860135610f1781610c1f565b9350604086013592506060860135610f2e81610c1f565b91506080860135610f3e81610c1f565b809150509295509295909350565b608081526000610f5f6080830187610a55565b6020830195909552506001600160a01b03929092166040830152606090910152919050565b60008154610f9181610dc1565b808552602060018381168015610fae5760018114610fc257610ff0565b60ff19851688840152604088019550610ff0565b866000528260002060005b85811015610fe85781548a8201860152908301908401610fcd565b890184019650505b505050505092915050565b60a08152600061100e60a0830188610f84565b6001600160a01b0396871660208401526040830195909552509184166060830152909216608090920191909152919050565b600060018060a01b03808816835260a0602084015261106260a0840188610a55565b83810360408501526110748188610f84565b905083810360608501526110888187610a55565b9250508084166080840152509695505050505050565b6060815260006110b16060830186610a55565b82810360208401526110c38186610f84565b905082810360408401526110d78185610a55565b9695505050505050565b60c0815260006110f460c0830189610f84565b82810360208401526111068189610a55565b604084019790975250506001600160a01b03938416606082015291909216608082015260a001529291505056fea2646970667358221220c136080aab2646d8b0cffc8029185eb20408fb4b829041dd31c402d6dfe79bac64736f6c63430008090033",
  "linkReferences": {},
  "deployedLinkReferences": {}
}