{
  "_format": "hh-sol-artifact-1",
  "contractName": "NftLinker",
  "sourceName": "contracts/ConverseNFT.sol",
  "abi": [
    {
      "inputs": [
        {
          "internalType": "string",
          "name": "chainName_",
          "type": "string"
        },
        {
          "internalType": "address",
          "name": "gateway",
          "type": "address"
        },
        {
          "internalType": "contract IAxelarGasReceiver",
          "name": "receiver",
          "type": "address"
        },
        {
          "internalType": "string",
          "name": "_initBaseURI",
          "type": "string"
        }
      ],
      "stateMutability": "nonpayable",
      "type": "constructor"
    },
    {
      "inputs": [],
      "name": "NotApprovedByGateway",
      "type": "error"
    },
    {
      "anonymous": false,
      "inputs": [
        {
          "indexed": true,
          "internalType": "address",
          "name": "owner",
          "type": "address"
        },
        {
          "indexed": true,
          "internalType": "address",
          "name": "approved",
          "type": "address"
        },
        {
          "indexed": true,
          "internalType": "uint256",
          "name": "tokenId",
          "type": "uint256"
        }
      ],
      "name": "Approval",
      "type": "event"
    },
    {
      "anonymous": false,
      "inputs": [
        {
          "indexed": true,
          "internalType": "address",
          "name": "owner",
          "type": "address"
        },
        {
          "indexed": true,
          "internalType": "address",
          "name": "operator",
          "type": "address"
        },
        {
          "indexed": false,
          "internalType": "bool",
          "name": "approved",
          "type": "bool"
        }
      ],
      "name": "ApprovalForAll",
      "type": "event"
    },
    {
      "anonymous": false,
      "inputs": [
        {
          "indexed": true,
          "internalType": "address",
          "name": "from",
          "type": "address"
        },
        {
          "indexed": true,
          "internalType": "address",
          "name": "to",
          "type": "address"
        },
        {
          "indexed": true,
          "internalType": "uint256",
          "name": "tokenId",
          "type": "uint256"
        }
      ],
      "name": "Transfer",
      "type": "event"
    },
    {
      "inputs": [
        {
          "internalType": "string",
          "name": "chain",
          "type": "string"
        },
        {
          "internalType": "string",
          "name": "linker",
          "type": "string"
        }
      ],
      "name": "addLinker",
      "outputs": [],
      "stateMutability": "nonpayable",
      "type": "function"
    },
    {
      "inputs": [
        {
          "internalType": "address",
          "name": "to",
          "type": "address"
        },
        {
          "internalType": "uint256",
          "name": "tokenId",
          "type": "uint256"
        }
      ],
      "name": "approve",
      "outputs": [],
      "stateMutability": "nonpayable",
      "type": "function"
    },
    {
      "inputs": [
        {
          "internalType": "address",
          "name": "owner",
          "type": "address"
        }
      ],
      "name": "balanceOf",
      "outputs": [
        {
          "internalType": "uint256",
          "name": "",
          "type": "uint256"
        }
      ],
      "stateMutability": "view",
      "type": "function"
    },
    {
      "inputs": [],
      "name": "baseExtension",
      "outputs": [
        {
          "internalType": "string",
          "name": "",
          "type": "string"
        }
      ],
      "stateMutability": "view",
      "type": "function"
    },
    {
      "inputs": [
        {
          "internalType": "bytes32",
          "name": "commandId",
          "type": "bytes32"
        },
        {
          "internalType": "string",
          "name": "sourceChain",
          "type": "string"
        },
        {
          "internalType": "string",
          "name": "sourceAddress",
          "type": "string"
        },
        {
          "internalType": "bytes",
          "name": "payload",
          "type": "bytes"
        }
      ],
      "name": "execute",
      "outputs": [],
      "stateMutability": "nonpayable",
      "type": "function"
    },
    {
      "inputs": [
        {
          "internalType": "bytes32",
          "name": "commandId",
          "type": "bytes32"
        },
        {
          "internalType": "string",
          "name": "sourceChain",
          "type": "string"
        },
        {
          "internalType": "string",
          "name": "sourceAddress",
          "type": "string"
        },
        {
          "internalType": "bytes",
          "name": "payload",
          "type": "bytes"
        },
        {
          "internalType": "string",
          "name": "tokenSymbol",
          "type": "string"
        },
        {
          "internalType": "uint256",
          "name": "amount",
          "type": "uint256"
        }
      ],
      "name": "executeWithToken",
      "outputs": [],
      "stateMutability": "nonpayable",
      "type": "function"
    },
    {
      "inputs": [],
      "name": "gateway",
      "outputs": [
        {
          "internalType": "contract IAxelarGateway",
          "name": "",
          "type": "address"
        }
      ],
      "stateMutability": "view",
      "type": "function"
    },
    {
      "inputs": [
        {
          "internalType": "uint256",
          "name": "tokenId",
          "type": "uint256"
        }
      ],
      "name": "getApproved",
      "outputs": [
        {
          "internalType": "address",
          "name": "",
          "type": "address"
        }
      ],
      "stateMutability": "view",
      "type": "function"
    },
    {
      "inputs": [
        {
          "internalType": "address",
          "name": "owner",
          "type": "address"
        },
        {
          "internalType": "address",
          "name": "operator",
          "type": "address"
        }
      ],
      "name": "isApprovedForAll",
      "outputs": [
        {
          "internalType": "bool",
          "name": "",
          "type": "bool"
        }
      ],
      "stateMutability": "view",
      "type": "function"
    },
    {
      "inputs": [
        {
          "internalType": "string",
          "name": "",
          "type": "string"
        }
      ],
      "name": "linkers",
      "outputs": [
        {
          "internalType": "string",
          "name": "",
          "type": "string"
        }
      ],
      "stateMutability": "view",
      "type": "function"
    },
    {
      "inputs": [],
      "name": "name",
      "outputs": [
        {
          "internalType": "string",
          "name": "",
          "type": "string"
        }
      ],
      "stateMutability": "view",
      "type": "function"
    },
    {
      "inputs": [
        {
          "internalType": "uint256",
          "name": "",
          "type": "uint256"
        }
      ],
      "name": "original",
      "outputs": [
        {
          "internalType": "bytes",
          "name": "",
          "type": "bytes"
        }
      ],
      "stateMutability": "view",
      "type": "function"
    },
    {
      "inputs": [
        {
          "internalType": "uint256",
          "name": "tokenId",
          "type": "uint256"
        }
      ],
      "name": "ownerOf",
      "outputs": [
        {
          "internalType": "address",
          "name": "",
          "type": "address"
        }
      ],
      "stateMutability": "view",
      "type": "function"
    },
    {
      "inputs": [
        {
          "internalType": "address",
          "name": "from",
          "type": "address"
        },
        {
          "internalType": "address",
          "name": "to",
          "type": "address"
        },
        {
          "internalType": "uint256",
          "name": "tokenId",
          "type": "uint256"
        }
      ],
      "name": "safeTransferFrom",
      "outputs": [],
      "stateMutability": "nonpayable",
      "type": "function"
    },
    {
      "inputs": [
        {
          "internalType": "address",
          "name": "from",
          "type": "address"
        },
        {
          "internalType": "address",
          "name": "to",
          "type": "address"
        },
        {
          "internalType": "uint256",
          "name": "tokenId",
          "type": "uint256"
        },
        {
          "internalType": "bytes",
          "name": "_data",
          "type": "bytes"
        }
      ],
      "name": "safeTransferFrom",
      "outputs": [],
      "stateMutability": "nonpayable",
      "type": "function"
    },
    {
      "inputs": [
        {
          "internalType": "address",
          "name": "operator",
          "type": "address"
        },
        {
          "internalType": "uint256",
          "name": "tokenId",
          "type": "uint256"
        },
        {
          "internalType": "string",
          "name": "destinationChain",
          "type": "string"
        },
        {
          "internalType": "address",
          "name": "destinationAddress",
          "type": "address"
        }
      ],
      "name": "sendNFT",
      "outputs": [],
      "stateMutability": "payable",
      "type": "function"
    },
    {
      "inputs": [
        {
          "internalType": "address",
          "name": "operator",
          "type": "address"
        },
        {
          "internalType": "bool",
          "name": "approved",
          "type": "bool"
        }
      ],
      "name": "setApprovalForAll",
      "outputs": [],
      "stateMutability": "nonpayable",
      "type": "function"
    },
    {
      "inputs": [
        {
          "internalType": "string",
          "name": "_newBaseURI",
          "type": "string"
        }
      ],
      "name": "setBaseURI",
      "outputs": [],
      "stateMutability": "nonpayable",
      "type": "function"
    },
    {
      "inputs": [
        {
          "internalType": "bytes4",
          "name": "interfaceId",
          "type": "bytes4"
        }
      ],
      "name": "supportsInterface",
      "outputs": [
        {
          "internalType": "bool",
          "name": "",
          "type": "bool"
        }
      ],
      "stateMutability": "view",
      "type": "function"
    },
    {
      "inputs": [],
      "name": "symbol",
      "outputs": [
        {
          "internalType": "string",
          "name": "",
          "type": "string"
        }
      ],
      "stateMutability": "view",
      "type": "function"
    },
    {
      "inputs": [
        {
          "internalType": "uint256",
          "name": "tokenId",
          "type": "uint256"
        }
      ],
      "name": "tokenURI",
      "outputs": [
        {
          "internalType": "string",
          "name": "",
          "type": "string"
        }
      ],
      "stateMutability": "view",
      "type": "function"
    },
    {
      "inputs": [
        {
          "internalType": "address",
          "name": "from",
          "type": "address"
        },
        {
          "internalType": "address",
          "name": "to",
          "type": "address"
        },
        {
          "internalType": "uint256",
          "name": "tokenId",
          "type": "uint256"
        }
      ],
      "name": "transferFrom",
      "outputs": [],
      "stateMutability": "nonpayable",
      "type": "function"
    }
  ],
  "bytecode": "0x60c06040526005608081905264173539b7b760d91b60a09081526200002891600b919062000144565b503480156200003657600080fd5b5060405162002b7c38038062002b7c8339810160408190526200005991620002d0565b604080518082018252600c81526b5772617070656420576f726d60a01b60208083019182528351808501909452600584526457574f524d60d81b908401528151869391620000ab916000919062000144565b508051620000c190600190602084019062000144565b5050600680546001600160a01b0319166001600160a01b039390931692909217909155508351620000fa90600a90602087019062000144565b50600c80546001600160a01b0319166001600160a01b03841617905562000121816200012b565b50505050620003a2565b80516200014090600990602084019062000144565b5050565b828054620001529062000365565b90600052602060002090601f016020900481019282620001765760008555620001c1565b82601f106200019157805160ff1916838001178555620001c1565b82800160010185558215620001c1579182015b82811115620001c1578251825591602001919060010190620001a4565b50620001cf929150620001d3565b5090565b5b80821115620001cf5760008155600101620001d4565b634e487b7160e01b600052604160045260246000fd5b600082601f8301126200021257600080fd5b81516001600160401b03808211156200022f576200022f620001ea565b604051601f8301601f19908116603f011681019082821181831017156200025a576200025a620001ea565b816040528381526020925086838588010111156200027757600080fd5b600091505b838210156200029b57858201830151818301840152908201906200027c565b83821115620002ad5760008385830101525b9695505050505050565b6001600160a01b0381168114620002cd57600080fd5b50565b60008060008060808587031215620002e757600080fd5b84516001600160401b0380821115620002ff57600080fd5b6200030d8883890162000200565b9550602087015191506200032182620002b7565b60408701519194506200033482620002b7565b6060870151919350808211156200034a57600080fd5b50620003598782880162000200565b91505092959194509250565b600181811c908216806200037a57607f821691505b602082108114156200039c57634e487b7160e01b600052602260045260246000fd5b50919050565b6127ca80620003b26000396000f3fe6080604052600436106101355760003560e01c806370a08231116100ab5780639b15a0a71161006f5780639b15a0a714610361578063a22cb46514610381578063b88d4fde146103a1578063c6682862146103c1578063c87b56dd146103d6578063e985e9c5146103f657600080fd5b806370a08231146102cb578063717eb03f146102f95780638afe189614610319578063933498761461033957806395d89b411461034c57600080fd5b80631a98b2e0116100fd5780631a98b2e01461020b57806323b872dd1461022b57806342842e0e1461024b578063491606581461026b57806355f804b31461028b5780636352211e146102ab57600080fd5b806301ffc9a71461013a57806306fdde031461016f578063081812fc14610191578063095ea7b3146101c9578063116191b6146101eb575b600080fd5b34801561014657600080fd5b5061015a610155366004611b8d565b61043f565b60405190151581526020015b60405180910390f35b34801561017b57600080fd5b50610184610491565b6040516101669190611c02565b34801561019d57600080fd5b506101b16101ac366004611c15565b610523565b6040516001600160a01b039091168152602001610166565b3480156101d557600080fd5b506101e96101e4366004611c43565b6105bd565b005b3480156101f757600080fd5b506006546101b1906001600160a01b031681565b34801561021757600080fd5b506101e9610226366004611cb8565b6106d3565b34801561023757600080fd5b506101e9610246366004611d92565b610855565b34801561025757600080fd5b506101e9610266366004611d92565b610886565b34801561027757600080fd5b506101e9610286366004611dd3565b6108a1565b34801561029757600080fd5b506101e96102a6366004611f44565b6109e4565b3480156102b757600080fd5b506101b16102c6366004611c15565b6109fb565b3480156102d757600080fd5b506102eb6102e6366004611f79565b610a72565b604051908152602001610166565b34801561030557600080fd5b50610184610314366004611c15565b610af9565b34801561032557600080fd5b50610184610334366004611f44565b610b93565b6101e9610347366004611f96565b610bb7565b34801561035857600080fd5b50610184610c60565b34801561036d57600080fd5b506101e961037c366004612002565b610c6f565b34801561038d57600080fd5b506101e961039c366004612074565b610ca1565b3480156103ad57600080fd5b506101e96103bc3660046120ad565b610cac565b3480156103cd57600080fd5b50610184610cde565b3480156103e257600080fd5b506101846103f1366004611c15565b610ceb565b34801561040257600080fd5b5061015a61041136600461212d565b6001600160a01b03918216600090815260056020908152604080832093909416825291909152205460ff1690565b60006001600160e01b031982166380ac58cd60e01b148061047057506001600160e01b03198216635b5e139f60e01b145b8061048b57506301ffc9a760e01b6001600160e01b03198316145b92915050565b6060600080546104a09061215b565b80601f01602080910402602001604051908101604052809291908181526020018280546104cc9061215b565b80156105195780601f106104ee57610100808354040283529160200191610519565b820191906000526020600020905b8154815290600101906020018083116104fc57829003601f168201915b5050505050905090565b6000818152600260205260408120546001600160a01b03166105a15760405162461bcd60e51b815260206004820152602c60248201527f4552433732313a20617070726f76656420717565727920666f72206e6f6e657860448201526b34b9ba32b73a103a37b5b2b760a11b60648201526084015b60405180910390fd5b506000908152600460205260409020546001600160a01b031690565b60006105c8826109fb565b9050806001600160a01b0316836001600160a01b031614156106365760405162461bcd60e51b815260206004820152602160248201527f4552433732313a20617070726f76616c20746f2063757272656e74206f776e656044820152603960f91b6064820152608401610598565b336001600160a01b038216148061065257506106528133610411565b6106c45760405162461bcd60e51b815260206004820152603860248201527f4552433732313a20617070726f76652063616c6c6572206973206e6f74206f7760448201527f6e6572206e6f7220617070726f76656420666f7220616c6c00000000000000006064820152608401610598565b6106ce8383610dc9565b505050565b600085856040516106e5929190612196565b604051908190038120600654631876eed960e01b83529092506001600160a01b031690631876eed99061072c908e908e908e908e908e9089908d908d908d906004016121cf565b602060405180830381600087803b15801561074657600080fd5b505af115801561075a573d6000803e3d6000fd5b505050506040513d601f19601f8201168201806040525081019061077e919061222e565b61079b57604051631403112d60e21b815260040160405180910390fd5b6108488a8a8080601f01602080910402602001604051908101604052809392919081815260200183838082843760009201919091525050604080516020601f8e018190048102820181019092528c815292508c91508b908190840183828082843760009201919091525050604080516020601f8b018190048102820181019092528981528c93508b9250908a908a90819084018382808284376000920191909152508a9250610e37915050565b5050505050505050505050565b61085f3382610e3f565b61087b5760405162461bcd60e51b81526004016105989061224b565b6106ce838383610f36565b6106ce83838360405180602001604052806000815250610cac565b600082826040516108b3929190612196565b604051908190038120600654635f6970c360e01b83529092506001600160a01b031690635f6970c3906108f4908b908b908b908b908b90899060040161229c565b602060405180830381600087803b15801561090e57600080fd5b505af1158015610922573d6000803e3d6000fd5b505050506040513d601f19601f82011682018060405250810190610946919061222e565b61096357604051631403112d60e21b815260040160405180910390fd5b6109da87878080601f01602080910402602001604051908101604052809392919081815260200183838082843760009201919091525050604080516020601f8b0181900481028201810190925289815292508991508890819084018382808284376000920191909152508892508791506110d29050565b5050505050505050565b80516109f7906009906020840190611adb565b5050565b6000818152600260205260408120546001600160a01b03168061048b5760405162461bcd60e51b815260206004820152602960248201527f4552433732313a206f776e657220717565727920666f72206e6f6e657869737460448201526832b73a103a37b5b2b760b91b6064820152608401610598565b60006001600160a01b038216610add5760405162461bcd60e51b815260206004820152602a60248201527f4552433732313a2062616c616e636520717565727920666f7220746865207a65604482015269726f206164647265737360b01b6064820152608401610598565b506001600160a01b031660009081526003602052604090205490565b60076020526000908152604090208054610b129061215b565b80601f0160208091040260200160405190810160405280929190818152602001828054610b3e9061215b565b8015610b8b5780601f10610b6057610100808354040283529160200191610b8b565b820191906000526020600020905b815481529060010190602001808311610b6e57829003601f168201915b505050505081565b805160208183018101805160088252928201919093012091528054610b129061215b565b6001600160a01b038416301415610bd857610bd3838383611258565b610c5a565b6001600160a01b0384166323b872dd336040516001600160e01b031960e084901b1681526001600160a01b03909116600482015230602482015260448101869052606401600060405180830381600087803b158015610c3657600080fd5b505af1158015610c4a573d6000803e3d6000fd5b50505050610c5a84848484611457565b50505050565b6060600180546104a09061215b565b80600883604051610c8091906122dd565b908152602001604051809103902090805190602001906106ce929190611adb565b6109f7338383611595565b610cb63383610e3f565b610cd25760405162461bcd60e51b81526004016105989061224b565b610c5a84848484611664565b600b8054610b129061215b565b6000818152600260205260409020546060906001600160a01b0316610d6a5760405162461bcd60e51b815260206004820152602f60248201527f4552433732314d657461646174613a2055524920717565727920666f72206e6f60448201526e3732bc34b9ba32b73a103a37b5b2b760891b6064820152608401610598565b6000610d74611697565b90506000815111610d945760405180602001604052806000815250610dc2565b80610d9e846116a6565b600b604051602001610db293929190612368565b6040516020818303038152906040525b9392505050565b600081815260046020526040902080546001600160a01b0319166001600160a01b0384169081179091558190610dfe826109fb565b6001600160a01b03167f8c5be1e5ebec7d5bd14f71427d1e84f3dd0314c0f7b2291e5b200ac8c7c3b92560405160405180910390a45050565b505050505050565b6000818152600260205260408120546001600160a01b0316610eb85760405162461bcd60e51b815260206004820152602c60248201527f4552433732313a206f70657261746f7220717565727920666f72206e6f6e657860448201526b34b9ba32b73a103a37b5b2b760a11b6064820152608401610598565b6000610ec3836109fb565b9050806001600160a01b0316846001600160a01b03161480610f0a57506001600160a01b0380821660009081526005602090815260408083209388168352929052205460ff165b80610f2e5750836001600160a01b0316610f2384610523565b6001600160a01b0316145b949350505050565b826001600160a01b0316610f49826109fb565b6001600160a01b031614610fad5760405162461bcd60e51b815260206004820152602560248201527f4552433732313a207472616e736665722066726f6d20696e636f72726563742060448201526437bbb732b960d91b6064820152608401610598565b6001600160a01b03821661100f5760405162461bcd60e51b8152602060048201526024808201527f4552433732313a207472616e7366657220746f20746865207a65726f206164646044820152637265737360e01b6064820152608401610598565b61101a600082610dc9565b6001600160a01b03831660009081526003602052604081208054600192906110439084906123bb565b90915550506001600160a01b03821660009081526003602052604081208054600192906110719084906123d2565b909155505060008181526002602052604080822080546001600160a01b0319166001600160a01b0386811691821790925591518493918716917fddf252ad1be2c89b69c2b068fc378daa952ba7f163c4a11628f55a4df523b3ef91a4505050565b6008846040516110e291906122dd565b9081526040519081900360200181206110fa916123ea565b60405180910390208380519060200120146111465760405162461bcd60e51b815260206004820152600c60248201526b2727aa2fa0afa624a725a2a960a11b6044820152606401610598565b606060008080611158858701876123f6565b6040519397509195509350915060009061117a90869086908690602001612457565b6040516020818303038152906040529050600a60405161119a91906123ea565b60405180910390208580519060200120141561121d576040516323b872dd60e01b81523060048201526001600160a01b038381166024830152604482018590528516906323b872dd90606401600060405180830381600087803b15801561120057600080fd5b505af1158015611214573d6000803e3d6000fd5b5050505061124d565b600083815260076020908152604090912082518592611240929190850190611adb565b5061124b83826117a4565b505b505050505050505050565b611261836117be565b600083815260076020526040812080546060929182916112809061215b565b80601f01602080910402602001604051908101604052809291908181526020018280546112ac9061215b565b80156112f95780601f106112ce576101008083540402835291602001916112f9565b820191906000526020600020905b8154815290600101906020018083116112dc57829003601f168201915b50505050508060200190518101906113119190612485565b604051909850919450925060009061133390859085908590899060200161251c565b60408051601f1981840301815290829052600c549092506001600160a01b031690630c93e3bb90349030908a9060089061136e9083906122dd565b9081526040519081900360200181206001600160e01b031960e087901b1682526113a0939291889033906004016125cf565b6000604051808303818588803b1580156113b957600080fd5b505af11580156113cd573d6000803e3d6000fd5b50506006546040516001600160a01b039091169350631c92115f92508991506008906113fa9083906122dd565b9081526040519081900360200181206001600160e01b031960e085901b1682526114299291869060040161262d565b600060405180830381600087803b15801561144357600080fd5b505af1158015610848573d6000803e3d6000fd5b6000600a8585846040516020016114719493929190612670565b60408051601f1981840301815290829052600c549092506001600160a01b031690630c93e3bb903490309087906008906114ac9083906122dd565b9081526040519081900360200181206001600160e01b031960e087901b1682526114de939291889033906004016125cf565b6000604051808303818588803b1580156114f757600080fd5b505af115801561150b573d6000803e3d6000fd5b50506006546040516001600160a01b039091169350631c92115f92508691506008906115389083906122dd565b9081526040519081900360200181206001600160e01b031960e085901b1682526115679291869060040161262d565b600060405180830381600087803b15801561158157600080fd5b505af115801561124d573d6000803e3d6000fd5b816001600160a01b0316836001600160a01b031614156115f75760405162461bcd60e51b815260206004820152601960248201527f4552433732313a20617070726f766520746f2063616c6c6572000000000000006044820152606401610598565b6001600160a01b03838116600081815260056020908152604080832094871680845294825291829020805460ff191686151590811790915591519182527f17307eab39ab6107e8899845ad3d59bd9653f200f220920489ca2b5937696c31910160405180910390a3505050565b61166f848484610f36565b61167b84848484611859565b610c5a5760405162461bcd60e51b815260040161059890612683565b6060600980546104a09061215b565b6060816116ca5750506040805180820190915260018152600360fc1b602082015290565b8160005b81156116f457806116de816126d5565b91506116ed9050600a83612706565b91506116ce565b60008167ffffffffffffffff81111561170f5761170f611e77565b6040519080825280601f01601f191660200182016040528015611739576020820181803683370190505b5090505b8415610f2e5761174e6001836123bb565b915061175b600a8661271a565b6117669060306123d2565b60f81b81838151811061177b5761177b61272e565b60200101906001600160f81b031916908160001a90535061179d600a86612706565b945061173d565b6109f7828260405180602001604052806000815250611966565b60006117c9826109fb565b90506117d6600083610dc9565b6001600160a01b03811660009081526003602052604081208054600192906117ff9084906123bb565b909155505060008281526002602052604080822080546001600160a01b0319169055518391906001600160a01b038416907fddf252ad1be2c89b69c2b068fc378daa952ba7f163c4a11628f55a4df523b3ef908390a45050565b60006001600160a01b0384163b1561195b57604051630a85bd0160e11b81526001600160a01b0385169063150b7a029061189d903390899088908890600401612744565b602060405180830381600087803b1580156118b757600080fd5b505af19250505080156118e7575060408051601f3d908101601f191682019092526118e491810190612777565b60015b611941573d808015611915576040519150601f19603f3d011682016040523d82523d6000602084013e61191a565b606091505b5080516119395760405162461bcd60e51b815260040161059890612683565b805181602001fd5b6001600160e01b031916630a85bd0160e11b149050610f2e565b506001949350505050565b6119708383611999565b61197d6000848484611859565b6106ce5760405162461bcd60e51b815260040161059890612683565b6001600160a01b0382166119ef5760405162461bcd60e51b815260206004820181905260248201527f4552433732313a206d696e7420746f20746865207a65726f20616464726573736044820152606401610598565b6000818152600260205260409020546001600160a01b031615611a545760405162461bcd60e51b815260206004820152601c60248201527f4552433732313a20746f6b656e20616c7265616479206d696e746564000000006044820152606401610598565b6001600160a01b0382166000908152600360205260408120805460019290611a7d9084906123d2565b909155505060008181526002602052604080822080546001600160a01b0319166001600160a01b03861690811790915590518392907fddf252ad1be2c89b69c2b068fc378daa952ba7f163c4a11628f55a4df523b3ef908290a45050565b828054611ae79061215b565b90600052602060002090601f016020900481019282611b095760008555611b4f565b82601f10611b2257805160ff1916838001178555611b4f565b82800160010185558215611b4f579182015b82811115611b4f578251825591602001919060010190611b34565b50611b5b929150611b5f565b5090565b5b80821115611b5b5760008155600101611b60565b6001600160e01b031981168114611b8a57600080fd5b50565b600060208284031215611b9f57600080fd5b8135610dc281611b74565b60005b83811015611bc5578181015183820152602001611bad565b83811115610c5a5750506000910152565b60008151808452611bee816020860160208601611baa565b601f01601f19169290920160200192915050565b602081526000610dc26020830184611bd6565b600060208284031215611c2757600080fd5b5035919050565b6001600160a01b0381168114611b8a57600080fd5b60008060408385031215611c5657600080fd5b8235611c6181611c2e565b946020939093013593505050565b60008083601f840112611c8157600080fd5b50813567ffffffffffffffff811115611c9957600080fd5b602083019150836020828501011115611cb157600080fd5b9250929050565b60008060008060008060008060008060c08b8d031215611cd757600080fd5b8a35995060208b013567ffffffffffffffff80821115611cf657600080fd5b611d028e838f01611c6f565b909b50995060408d0135915080821115611d1b57600080fd5b611d278e838f01611c6f565b909950975060608d0135915080821115611d4057600080fd5b611d4c8e838f01611c6f565b909750955060808d0135915080821115611d6557600080fd5b50611d728d828e01611c6f565b9150809450508092505060a08b013590509295989b9194979a5092959850565b600080600060608486031215611da757600080fd5b8335611db281611c2e565b92506020840135611dc281611c2e565b929592945050506040919091013590565b60008060008060008060006080888a031215611dee57600080fd5b87359650602088013567ffffffffffffffff80821115611e0d57600080fd5b611e198b838c01611c6f565b909850965060408a0135915080821115611e3257600080fd5b611e3e8b838c01611c6f565b909650945060608a0135915080821115611e5757600080fd5b50611e648a828b01611c6f565b989b979a50959850939692959293505050565b634e487b7160e01b600052604160045260246000fd5b604051601f8201601f1916810167ffffffffffffffff81118282101715611eb657611eb6611e77565b604052919050565b600067ffffffffffffffff821115611ed857611ed8611e77565b50601f01601f191660200190565b6000611ef9611ef484611ebe565b611e8d565b9050828152838383011115611f0d57600080fd5b828260208301376000602084830101529392505050565b600082601f830112611f3557600080fd5b610dc283833560208501611ee6565b600060208284031215611f5657600080fd5b813567ffffffffffffffff811115611f6d57600080fd5b610f2e84828501611f24565b600060208284031215611f8b57600080fd5b8135610dc281611c2e565b60008060008060808587031215611fac57600080fd5b8435611fb781611c2e565b935060208501359250604085013567ffffffffffffffff811115611fda57600080fd5b611fe687828801611f24565b9250506060850135611ff781611c2e565b939692955090935050565b6000806040838503121561201557600080fd5b823567ffffffffffffffff8082111561202d57600080fd5b61203986838701611f24565b9350602085013591508082111561204f57600080fd5b5061205c85828601611f24565b9150509250929050565b8015158114611b8a57600080fd5b6000806040838503121561208757600080fd5b823561209281611c2e565b915060208301356120a281612066565b809150509250929050565b600080600080608085870312156120c357600080fd5b84356120ce81611c2e565b935060208501356120de81611c2e565b925060408501359150606085013567ffffffffffffffff81111561210157600080fd5b8501601f8101871361211257600080fd5b61212187823560208401611ee6565b91505092959194509250565b6000806040838503121561214057600080fd5b823561214b81611c2e565b915060208301356120a281611c2e565b600181811c9082168061216f57607f821691505b6020821081141561219057634e487b7160e01b600052602260045260246000fd5b50919050565b8183823760009101908152919050565b81835281816020850137506000828201602090810191909152601f909101601f19169091010190565b89815260c0602082015260006121e960c083018a8c6121a6565b82810360408401526121fc81898b6121a6565b905086606084015282810360808401526122178186886121a6565b9150508260a08301529a9950505050505050505050565b60006020828403121561224057600080fd5b8151610dc281612066565b60208082526031908201527f4552433732313a207472616e736665722063616c6c6572206973206e6f74206f6040820152701ddb995c881b9bdc88185c1c1c9bdd9959607a1b606082015260800190565b8681526080602082015260006122b66080830187896121a6565b82810360408401526122c98186886121a6565b915050826060830152979650505050505050565b600082516122ef818460208701611baa565b9190910192915050565b600081546123068161215b565b6001828116801561231e576001811461232f5761235e565b60ff1984168752828701945061235e565b8560005260208060002060005b858110156123555781548a82015290840190820161233c565b50505082870194505b5050505092915050565b6000845161237a818460208901611baa565b84519083019061238e818360208901611baa565b61239a818301866122f9565b979650505050505050565b634e487b7160e01b600052601160045260246000fd5b6000828210156123cd576123cd6123a5565b500390565b600082198211156123e5576123e56123a5565b500190565b6000610dc282846122f9565b6000806000806080858703121561240c57600080fd5b843567ffffffffffffffff81111561242357600080fd5b61242f87828801611f24565b945050602085013561244081611c2e565b9250604085013591506060850135611ff781611c2e565b60608152600061246a6060830186611bd6565b6001600160a01b039490941660208301525060400152919050565b60008060006060848603121561249a57600080fd5b835167ffffffffffffffff8111156124b157600080fd5b8401601f810186136124c257600080fd5b80516124d0611ef482611ebe565b8181528760208385010111156124e557600080fd5b6124f6826020830160208601611baa565b809550505050602084015161250a81611c2e565b80925050604084015190509250925092565b60808152600061252f6080830187611bd6565b6001600160a01b0395861660208401526040830194909452509216606090920191909152919050565b600081546125658161215b565b8085526020600183811680156125825760018114612596576125c4565b60ff198516888401526040880195506125c4565b866000528260002060005b858110156125bc5781548a82018601529083019084016125a1565b890184019650505b505050505092915050565b600060018060a01b03808816835260a060208401526125f160a0840188611bd6565b83810360408501526126038188612558565b905083810360608501526126178187611bd6565b9250508084166080840152509695505050505050565b6060815260006126406060830186611bd6565b82810360208401526126528186612558565b905082810360408401526126668185611bd6565b9695505050505050565b60808152600061252f6080830187612558565b60208082526032908201527f4552433732313a207472616e7366657220746f206e6f6e20455243373231526560408201527131b2b4bb32b91034b6b83632b6b2b73a32b960711b606082015260800190565b60006000198214156126e9576126e96123a5565b5060010190565b634e487b7160e01b600052601260045260246000fd5b600082612715576127156126f0565b500490565b600082612729576127296126f0565b500690565b634e487b7160e01b600052603260045260246000fd5b6001600160a01b038581168252841660208201526040810183905260806060820181905260009061266690830184611bd6565b60006020828403121561278957600080fd5b8151610dc281611b7456fea2646970667358221220e00ef7928d39ece72e3ed4689180481977b4c920513426a4e0c59df433c1cd3164736f6c63430008090033",
  "linkReferences": {},
  "deployedLinkReferences": {}
}