{
  "_format": "hh-sol-artifact-1",
  "contractName": "MCrossCollection",
  "sourceName": "contracts/MCross-NFT.sol",
  "abi": [
    {
      "inputs": [
        {
          "internalType": "string",
          "name": "_name",
          "type": "string"
        },
        {
          "internalType": "string",
          "name": "_symbol",
          "type": "string"
        },
        {
          "internalType": "string",
          "name": "_initBaseURI",
          "type": "string"
        },
        {
          "internalType": "address",
          "name": "gateway",
          "type": "address"
        }
      ],
      "stateMutability": "nonpayable",
      "type": "constructor"
    },
    {
      "inputs": [],
      "name": "NotApprovedByGateway",
      "type": "error"
    },
    {
      "anonymous": false,
      "inputs": [
        {
          "indexed": true,
          "internalType": "address",
          "name": "owner",
          "type": "address"
        },
        {
          "indexed": true,
          "internalType": "address",
          "name": "approved",
          "type": "address"
        },
        {
          "indexed": true,
          "internalType": "uint256",
          "name": "tokenId",
          "type": "uint256"
        }
      ],
      "name": "Approval",
      "type": "event"
    },
    {
      "anonymous": false,
      "inputs": [
        {
          "indexed": true,
          "internalType": "address",
          "name": "owner",
          "type": "address"
        },
        {
          "indexed": true,
          "internalType": "address",
          "name": "operator",
          "type": "address"
        },
        {
          "indexed": false,
          "internalType": "bool",
          "name": "approved",
          "type": "bool"
        }
      ],
      "name": "ApprovalForAll",
      "type": "event"
    },
    {
      "anonymous": false,
      "inputs": [
        {
          "indexed": true,
          "internalType": "address",
          "name": "previousOwner",
          "type": "address"
        },
        {
          "indexed": true,
          "internalType": "address",
          "name": "newOwner",
          "type": "address"
        }
      ],
      "name": "OwnershipTransferred",
      "type": "event"
    },
    {
      "anonymous": false,
      "inputs": [
        {
          "indexed": true,
          "internalType": "address",
          "name": "from",
          "type": "address"
        },
        {
          "indexed": true,
          "internalType": "address",
          "name": "to",
          "type": "address"
        },
        {
          "indexed": true,
          "internalType": "uint256",
          "name": "tokenId",
          "type": "uint256"
        }
      ],
      "name": "Transfer",
      "type": "event"
    },
    {
      "inputs": [
        {
          "internalType": "address",
          "name": "to",
          "type": "address"
        },
        {
          "internalType": "uint256",
          "name": "tokenId",
          "type": "uint256"
        }
      ],
      "name": "approve",
      "outputs": [],
      "stateMutability": "nonpayable",
      "type": "function"
    },
    {
      "inputs": [
        {
          "internalType": "address",
          "name": "owner",
          "type": "address"
        }
      ],
      "name": "balanceOf",
      "outputs": [
        {
          "internalType": "uint256",
          "name": "",
          "type": "uint256"
        }
      ],
      "stateMutability": "view",
      "type": "function"
    },
    {
      "inputs": [],
      "name": "baseExtension",
      "outputs": [
        {
          "internalType": "string",
          "name": "",
          "type": "string"
        }
      ],
      "stateMutability": "view",
      "type": "function"
    },
    {
      "inputs": [],
      "name": "baseURI",
      "outputs": [
        {
          "internalType": "string",
          "name": "",
          "type": "string"
        }
      ],
      "stateMutability": "view",
      "type": "function"
    },
    {
      "inputs": [],
      "name": "cost",
      "outputs": [
        {
          "internalType": "uint256",
          "name": "",
          "type": "uint256"
        }
      ],
      "stateMutability": "view",
      "type": "function"
    },
    {
      "inputs": [
        {
          "internalType": "bytes32",
          "name": "commandId",
          "type": "bytes32"
        },
        {
          "internalType": "string",
          "name": "sourceChain",
          "type": "string"
        },
        {
          "internalType": "string",
          "name": "sourceAddress",
          "type": "string"
        },
        {
          "internalType": "bytes",
          "name": "payload",
          "type": "bytes"
        }
      ],
      "name": "execute",
      "outputs": [],
      "stateMutability": "nonpayable",
      "type": "function"
    },
    {
      "inputs": [
        {
          "internalType": "bytes32",
          "name": "commandId",
          "type": "bytes32"
        },
        {
          "internalType": "string",
          "name": "sourceChain",
          "type": "string"
        },
        {
          "internalType": "string",
          "name": "sourceAddress",
          "type": "string"
        },
        {
          "internalType": "bytes",
          "name": "payload",
          "type": "bytes"
        },
        {
          "internalType": "string",
          "name": "tokenSymbol",
          "type": "string"
        },
        {
          "internalType": "uint256",
          "name": "amount",
          "type": "uint256"
        }
      ],
      "name": "executeWithToken",
      "outputs": [],
      "stateMutability": "nonpayable",
      "type": "function"
    },
    {
      "inputs": [],
      "name": "gateway",
      "outputs": [
        {
          "internalType": "contract IAxelarGateway",
          "name": "",
          "type": "address"
        }
      ],
      "stateMutability": "view",
      "type": "function"
    },
    {
      "inputs": [
        {
          "internalType": "uint256",
          "name": "tokenId",
          "type": "uint256"
        }
      ],
      "name": "getApproved",
      "outputs": [
        {
          "internalType": "address",
          "name": "",
          "type": "address"
        }
      ],
      "stateMutability": "view",
      "type": "function"
    },
    {
      "inputs": [
        {
          "internalType": "address",
          "name": "owner",
          "type": "address"
        },
        {
          "internalType": "address",
          "name": "operator",
          "type": "address"
        }
      ],
      "name": "isApprovedForAll",
      "outputs": [
        {
          "internalType": "bool",
          "name": "",
          "type": "bool"
        }
      ],
      "stateMutability": "view",
      "type": "function"
    },
    {
      "inputs": [],
      "name": "maxMintAmount",
      "outputs": [
        {
          "internalType": "uint256",
          "name": "",
          "type": "uint256"
        }
      ],
      "stateMutability": "view",
      "type": "function"
    },
    {
      "inputs": [],
      "name": "maxSupply",
      "outputs": [
        {
          "internalType": "uint256",
          "name": "",
          "type": "uint256"
        }
      ],
      "stateMutability": "view",
      "type": "function"
    },
    {
      "inputs": [
        {
          "internalType": "uint256",
          "name": "_mintAmount",
          "type": "uint256"
        }
      ],
      "name": "mint",
      "outputs": [],
      "stateMutability": "payable",
      "type": "function"
    },
    {
      "inputs": [],
      "name": "name",
      "outputs": [
        {
          "internalType": "string",
          "name": "",
          "type": "string"
        }
      ],
      "stateMutability": "view",
      "type": "function"
    },
    {
      "inputs": [],
      "name": "owner",
      "outputs": [
        {
          "internalType": "address",
          "name": "",
          "type": "address"
        }
      ],
      "stateMutability": "view",
      "type": "function"
    },
    {
      "inputs": [
        {
          "internalType": "uint256",
          "name": "tokenId",
          "type": "uint256"
        }
      ],
      "name": "ownerOf",
      "outputs": [
        {
          "internalType": "address",
          "name": "",
          "type": "address"
        }
      ],
      "stateMutability": "view",
      "type": "function"
    },
    {
      "inputs": [
        {
          "internalType": "bool",
          "name": "_state",
          "type": "bool"
        }
      ],
      "name": "pause",
      "outputs": [],
      "stateMutability": "nonpayable",
      "type": "function"
    },
    {
      "inputs": [],
      "name": "paused",
      "outputs": [
        {
          "internalType": "bool",
          "name": "",
          "type": "bool"
        }
      ],
      "stateMutability": "view",
      "type": "function"
    },
    {
      "inputs": [],
      "name": "renounceOwnership",
      "outputs": [],
      "stateMutability": "nonpayable",
      "type": "function"
    },
    {
      "inputs": [
        {
          "internalType": "address",
          "name": "from",
          "type": "address"
        },
        {
          "internalType": "address",
          "name": "to",
          "type": "address"
        },
        {
          "internalType": "uint256",
          "name": "tokenId",
          "type": "uint256"
        }
      ],
      "name": "safeTransferFrom",
      "outputs": [],
      "stateMutability": "nonpayable",
      "type": "function"
    },
    {
      "inputs": [
        {
          "internalType": "address",
          "name": "from",
          "type": "address"
        },
        {
          "internalType": "address",
          "name": "to",
          "type": "address"
        },
        {
          "internalType": "uint256",
          "name": "tokenId",
          "type": "uint256"
        },
        {
          "internalType": "bytes",
          "name": "_data",
          "type": "bytes"
        }
      ],
      "name": "safeTransferFrom",
      "outputs": [],
      "stateMutability": "nonpayable",
      "type": "function"
    },
    {
      "inputs": [
        {
          "internalType": "address",
          "name": "operator",
          "type": "address"
        },
        {
          "internalType": "bool",
          "name": "approved",
          "type": "bool"
        }
      ],
      "name": "setApprovalForAll",
      "outputs": [],
      "stateMutability": "nonpayable",
      "type": "function"
    },
    {
      "inputs": [
        {
          "internalType": "string",
          "name": "_newBaseExtension",
          "type": "string"
        }
      ],
      "name": "setBaseExtension",
      "outputs": [],
      "stateMutability": "nonpayable",
      "type": "function"
    },
    {
      "inputs": [
        {
          "internalType": "string",
          "name": "_newBaseURI",
          "type": "string"
        }
      ],
      "name": "setBaseURI",
      "outputs": [],
      "stateMutability": "nonpayable",
      "type": "function"
    },
    {
      "inputs": [
        {
          "internalType": "uint256",
          "name": "_newCost",
          "type": "uint256"
        }
      ],
      "name": "setCost",
      "outputs": [],
      "stateMutability": "nonpayable",
      "type": "function"
    },
    {
      "inputs": [
        {
          "internalType": "address",
          "name": "_newAddress",
          "type": "address"
        }
      ],
      "name": "setWETHAddress",
      "outputs": [],
      "stateMutability": "nonpayable",
      "type": "function"
    },
    {
      "inputs": [
        {
          "internalType": "uint256",
          "name": "_newmaxMintAmount",
          "type": "uint256"
        }
      ],
      "name": "setmaxMintAmount",
      "outputs": [],
      "stateMutability": "nonpayable",
      "type": "function"
    },
    {
      "inputs": [
        {
          "internalType": "bytes4",
          "name": "interfaceId",
          "type": "bytes4"
        }
      ],
      "name": "supportsInterface",
      "outputs": [
        {
          "internalType": "bool",
          "name": "",
          "type": "bool"
        }
      ],
      "stateMutability": "view",
      "type": "function"
    },
    {
      "inputs": [],
      "name": "symbol",
      "outputs": [
        {
          "internalType": "string",
          "name": "",
          "type": "string"
        }
      ],
      "stateMutability": "view",
      "type": "function"
    },
    {
      "inputs": [
        {
          "internalType": "uint256",
          "name": "index",
          "type": "uint256"
        }
      ],
      "name": "tokenByIndex",
      "outputs": [
        {
          "internalType": "uint256",
          "name": "",
          "type": "uint256"
        }
      ],
      "stateMutability": "view",
      "type": "function"
    },
    {
      "inputs": [
        {
          "internalType": "address",
          "name": "owner",
          "type": "address"
        },
        {
          "internalType": "uint256",
          "name": "index",
          "type": "uint256"
        }
      ],
      "name": "tokenOfOwnerByIndex",
      "outputs": [
        {
          "internalType": "uint256",
          "name": "",
          "type": "uint256"
        }
      ],
      "stateMutability": "view",
      "type": "function"
    },
    {
      "inputs": [
        {
          "internalType": "uint256",
          "name": "tokenId",
          "type": "uint256"
        }
      ],
      "name": "tokenURI",
      "outputs": [
        {
          "internalType": "string",
          "name": "",
          "type": "string"
        }
      ],
      "stateMutability": "view",
      "type": "function"
    },
    {
      "inputs": [],
      "name": "totalSupply",
      "outputs": [
        {
          "internalType": "uint256",
          "name": "",
          "type": "uint256"
        }
      ],
      "stateMutability": "view",
      "type": "function"
    },
    {
      "inputs": [
        {
          "internalType": "address",
          "name": "from",
          "type": "address"
        },
        {
          "internalType": "address",
          "name": "to",
          "type": "address"
        },
        {
          "internalType": "uint256",
          "name": "tokenId",
          "type": "uint256"
        }
      ],
      "name": "transferFrom",
      "outputs": [],
      "stateMutability": "nonpayable",
      "type": "function"
    },
    {
      "inputs": [
        {
          "internalType": "address",
          "name": "newOwner",
          "type": "address"
        }
      ],
      "name": "transferOwnership",
      "outputs": [],
      "stateMutability": "nonpayable",
      "type": "function"
    },
    {
      "inputs": [],
      "name": "usercanRefund",
      "outputs": [],
      "stateMutability": "nonpayable",
      "type": "function"
    },
    {
      "inputs": [
        {
          "internalType": "address",
          "name": "_owner",
          "type": "address"
        }
      ],
      "name": "walletOfOwner",
      "outputs": [
        {
          "internalType": "uint256[]",
          "name": "",
          "type": "uint256[]"
        }
      ],
      "stateMutability": "view",
      "type": "function"
    },
    {
      "inputs": [],
      "name": "withdraw",
      "outputs": [],
      "stateMutability": "nonpayable",
      "type": "function"
    },
    {
      "inputs": [],
      "name": "withdrawWETH",
      "outputs": [],
      "stateMutability": "nonpayable",
      "type": "function"
    }
  ],
  "bytecode": "0x60c06040526005608081905264173539b7b760d91b60a09081526200002891600d9190620001fa565b5066470de4df820000600e556103e8600f556005601055601180546001600160a81b03191674c778417e063141139fce010982780140aa0cd5ab001790553480156200007357600080fd5b5060405162002f7838038062002f7883398101604081905262000096916200036d565b8084848160009080519060200190620000b1929190620001fa565b508051620000c7906001906020840190620001fa565b505050620000e4620000de6200012c60201b60201c565b62000130565b600b80546001600160a01b0319166001600160a01b03929092169190911790556200010f8262000182565b5050601480546001600160a01b03191633179055506200045d9050565b3390565b600a80546001600160a01b038381166001600160a01b0319831681179093556040519116919082907f8be0079c531659141344cd1fd0a4f28419497f9722a3daafe3b4186f6b6457e090600090a35050565b600a546001600160a01b03163314620001e15760405162461bcd60e51b815260206004820181905260248201527f4f776e61626c653a2063616c6c6572206973206e6f7420746865206f776e6572604482015260640160405180910390fd5b8051620001f690600c906020840190620001fa565b5050565b828054620002089062000420565b90600052602060002090601f0160209004810192826200022c576000855562000277565b82601f106200024757805160ff191683800117855562000277565b8280016001018555821562000277579182015b82811115620002775782518255916020019190600101906200025a565b506200028592915062000289565b5090565b5b808211156200028557600081556001016200028a565b634e487b7160e01b600052604160045260246000fd5b600082601f830112620002c857600080fd5b81516001600160401b0380821115620002e557620002e5620002a0565b604051601f8301601f19908116603f01168101908282118183101715620003105762000310620002a0565b816040528381526020925086838588010111156200032d57600080fd5b600091505b8382101562000351578582018301518183018401529082019062000332565b83821115620003635760008385830101525b9695505050505050565b600080600080608085870312156200038457600080fd5b84516001600160401b03808211156200039c57600080fd5b620003aa88838901620002b6565b95506020870151915080821115620003c157600080fd5b620003cf88838901620002b6565b94506040870151915080821115620003e657600080fd5b50620003f587828801620002b6565b606087015190935090506001600160a01b03811681146200041557600080fd5b939692955090935050565b600181811c908216806200043557607f821691505b602082108114156200045757634e487b7160e01b600052602260045260246000fd5b50919050565b612b0b806200046d6000396000f3fe6080604052600436106102305760003560e01c806355f804b31161012e578063a0712d68116100ab578063c87b56dd1161006f578063c87b56dd14610640578063d5abeb0114610660578063da3ef23f14610676578063e985e9c514610696578063f2fde38b146106df57600080fd5b8063a0712d68146105c3578063a22cb465146105d6578063b88d4fde146105f6578063c389201b14610616578063c66828621461062b57600080fd5b806370a08231116100f257806370a082311461053b578063715018a61461055b5780637f00c7a6146105705780638da5cb5b1461059057806395d89b41146105ae57600080fd5b806355f804b3146104ac5780635c975abb146104cc5780636352211e146104e65780636a4234eb146105065780636c0360eb1461052657600080fd5b8063239c70ae116101bc578063438b630011610180578063438b63001461040a57806344a0d68a1461043757806349160658146104575780634c02f62e146104775780634f6ccce71461048c57600080fd5b8063239c70ae1461037f57806323b872dd146103955780632f745c59146103b55780633ccfd60b146103d557806342842e0e146103ea57600080fd5b8063095ea7b311610203578063095ea7b3146102e6578063116191b61461030657806313faede61461032657806318160ddd1461034a5780631a98b2e01461035f57600080fd5b806301ffc9a71461023557806302329a291461026a57806306fdde031461028c578063081812fc146102ae575b600080fd5b34801561024157600080fd5b50610255610250366004612193565b6106ff565b60405190151581526020015b60405180910390f35b34801561027657600080fd5b5061028a6102853660046121be565b61072a565b005b34801561029857600080fd5b506102a1610770565b6040516102619190612233565b3480156102ba57600080fd5b506102ce6102c9366004612246565b610802565b6040516001600160a01b039091168152602001610261565b3480156102f257600080fd5b5061028a610301366004612274565b610897565b34801561031257600080fd5b50600b546102ce906001600160a01b031681565b34801561033257600080fd5b5061033c600e5481565b604051908152602001610261565b34801561035657600080fd5b5060085461033c565b34801561036b57600080fd5b5061028a61037a3660046122e9565b6109ad565b34801561038b57600080fd5b5061033c60105481565b3480156103a157600080fd5b5061028a6103b03660046123c3565b610b2f565b3480156103c157600080fd5b5061033c6103d0366004612274565b610b60565b3480156103e157600080fd5b5061028a610bf6565b3480156103f657600080fd5b5061028a6104053660046123c3565b610c4f565b34801561041657600080fd5b5061042a610425366004612404565b610c6a565b6040516102619190612421565b34801561044357600080fd5b5061028a610452366004612246565b610d0c565b34801561046357600080fd5b5061028a610472366004612465565b610d3b565b34801561048357600080fd5b5061028a610e7e565b34801561049857600080fd5b5061033c6104a7366004612246565b610f39565b3480156104b857600080fd5b5061028a6104c7366004612595565b610fcc565b3480156104d857600080fd5b506011546102559060ff1681565b3480156104f257600080fd5b506102ce610501366004612246565b61100d565b34801561051257600080fd5b5061028a610521366004612404565b611084565b34801561053257600080fd5b506102a16110d6565b34801561054757600080fd5b5061033c610556366004612404565b611164565b34801561056757600080fd5b5061028a6111eb565b34801561057c57600080fd5b5061028a61058b366004612246565b611221565b34801561059c57600080fd5b50600a546001600160a01b03166102ce565b3480156105ba57600080fd5b506102a1611250565b61028a6105d1366004612246565b61125f565b3480156105e257600080fd5b5061028a6105f13660046125de565b61130c565b34801561060257600080fd5b5061028a610611366004612617565b611317565b34801561062257600080fd5b5061028a61134f565b34801561063757600080fd5b506102a16113b2565b34801561064c57600080fd5b506102a161065b366004612246565b6113bf565b34801561066c57600080fd5b5061033c600f5481565b34801561068257600080fd5b5061028a610691366004612595565b61149d565b3480156106a257600080fd5b506102556106b1366004612697565b6001600160a01b03918216600090815260056020908152604080832093909416825291909152205460ff1690565b3480156106eb57600080fd5b5061028a6106fa366004612404565b6114da565b60006001600160e01b0319821663780e9d6360e01b1480610724575061072482611572565b92915050565b600a546001600160a01b0316331461075d5760405162461bcd60e51b8152600401610754906126c5565b60405180910390fd5b6011805460ff1916911515919091179055565b60606000805461077f906126fa565b80601f01602080910402602001604051908101604052809291908181526020018280546107ab906126fa565b80156107f85780601f106107cd576101008083540402835291602001916107f8565b820191906000526020600020905b8154815290600101906020018083116107db57829003601f168201915b5050505050905090565b6000818152600260205260408120546001600160a01b031661087b5760405162461bcd60e51b815260206004820152602c60248201527f4552433732313a20617070726f76656420717565727920666f72206e6f6e657860448201526b34b9ba32b73a103a37b5b2b760a11b6064820152608401610754565b506000908152600460205260409020546001600160a01b031690565b60006108a28261100d565b9050806001600160a01b0316836001600160a01b031614156109105760405162461bcd60e51b815260206004820152602160248201527f4552433732313a20617070726f76616c20746f2063757272656e74206f776e656044820152603960f91b6064820152608401610754565b336001600160a01b038216148061092c575061092c81336106b1565b61099e5760405162461bcd60e51b815260206004820152603860248201527f4552433732313a20617070726f76652063616c6c6572206973206e6f74206f7760448201527f6e6572206e6f7220617070726f76656420666f7220616c6c00000000000000006064820152608401610754565b6109a883836115c2565b505050565b600085856040516109bf929190612735565b604051908190038120600b54631876eed960e01b83529092506001600160a01b031690631876eed990610a06908e908e908e908e908e9089908d908d908d9060040161276e565b602060405180830381600087803b158015610a2057600080fd5b505af1158015610a34573d6000803e3d6000fd5b505050506040513d601f19601f82011682018060405250810190610a5891906127cd565b610a7557604051631403112d60e21b815260040160405180910390fd5b610b228a8a8080601f01602080910402602001604051908101604052809392919081815260200183838082843760009201919091525050604080516020601f8e018190048102820181019092528c815292508c91508b908190840183828082843760009201919091525050604080516020601f8b018190048102820181019092528981528c93508b9250908a908a90819084018382808284376000920191909152508a9250611630915050565b5050505050505050505050565b610b3933826116f5565b610b555760405162461bcd60e51b8152600401610754906127ea565b6109a88383836117ec565b6000610b6b83611164565b8210610bcd5760405162461bcd60e51b815260206004820152602b60248201527f455243373231456e756d657261626c653a206f776e657220696e646578206f7560448201526a74206f6620626f756e647360a81b6064820152608401610754565b506001600160a01b03919091166000908152600660209081526040808320938352929052205490565b600a546001600160a01b03163314610c205760405162461bcd60e51b8152600401610754906126c5565b60405133904780156108fc02916000818181858888f19350505050158015610c4c573d6000803e3d6000fd5b50565b6109a883838360405180602001604052806000815250611317565b60606000610c7783611164565b905060008167ffffffffffffffff811115610c9457610c94612509565b604051908082528060200260200182016040528015610cbd578160200160208202803683370190505b50905060005b82811015610d0457610cd58582610b60565b828281518110610ce757610ce761283b565b602090810291909101015280610cfc81612867565b915050610cc3565b509392505050565b600a546001600160a01b03163314610d365760405162461bcd60e51b8152600401610754906126c5565b600e55565b60008282604051610d4d929190612735565b604051908190038120600b54635f6970c360e01b83529092506001600160a01b031690635f6970c390610d8e908b908b908b908b908b908990600401612882565b602060405180830381600087803b158015610da857600080fd5b505af1158015610dbc573d6000803e3d6000fd5b505050506040513d601f19601f82011682018060405250810190610de091906127cd565b610dfd57604051631403112d60e21b815260040160405180910390fd5b610e7487878080601f01602080910402602001604051908101604052809392919081815260200183838082843760009201919091525050604080516020601f8b0181900481028201810190925289815292508991508890819084018382808284376000920191909152508892508791506113499050565b5050505050505050565b600a546001600160a01b03163314610ea85760405162461bcd60e51b8152600401610754906126c5565b60115460145460135460405163a9059cbb60e01b81526001600160a01b0392831660048201526024810191909152610100909204169063a9059cbb90604401602060405180830381600087803b158015610f0157600080fd5b505af1158015610f15573d6000803e3d6000fd5b505050506040513d601f19601f82011682018060405250810190610c4c91906127cd565b6000610f4460085490565b8210610fa75760405162461bcd60e51b815260206004820152602c60248201527f455243373231456e756d657261626c653a20676c6f62616c20696e646578206f60448201526b7574206f6620626f756e647360a01b6064820152608401610754565b60088281548110610fba57610fba61283b565b90600052602060002001549050919050565b600a546001600160a01b03163314610ff65760405162461bcd60e51b8152600401610754906126c5565b805161100990600c9060208401906120e4565b5050565b6000818152600260205260408120546001600160a01b0316806107245760405162461bcd60e51b815260206004820152602960248201527f4552433732313a206f776e657220717565727920666f72206e6f6e657869737460448201526832b73a103a37b5b2b760b91b6064820152608401610754565b600a546001600160a01b031633146110ae5760405162461bcd60e51b8152600401610754906126c5565b601180546001600160a01b0390921661010002610100600160a81b0319909216919091179055565b600c80546110e3906126fa565b80601f016020809104026020016040519081016040528092919081815260200182805461110f906126fa565b801561115c5780601f106111315761010080835404028352916020019161115c565b820191906000526020600020905b81548152906001019060200180831161113f57829003601f168201915b505050505081565b60006001600160a01b0382166111cf5760405162461bcd60e51b815260206004820152602a60248201527f4552433732313a2062616c616e636520717565727920666f7220746865207a65604482015269726f206164647265737360b01b6064820152608401610754565b506001600160a01b031660009081526003602052604090205490565b600a546001600160a01b031633146112155760405162461bcd60e51b8152600401610754906126c5565b61121f6000611993565b565b600a546001600160a01b0316331461124b5760405162461bcd60e51b8152600401610754906126c5565b601055565b60606001805461077f906126fa565b600061126a60085490565b60115490915060ff161561127d57600080fd5b6000821161128a57600080fd5b60105482111561129957600080fd5b600f546112a683836128c3565b11156112b157600080fd5b600a546001600160a01b031633146112dd5781600e546112d191906128db565b3410156112dd57600080fd5b60015b8281116109a8576112fa336112f583856128c3565b6119e5565b8061130481612867565b9150506112e0565b6110093383836119ff565b61132133836116f5565b61133d5760405162461bcd60e51b8152600401610754906127ea565b61134984848484611ace565b50505050565b3360009081526012602052604090205461136857600080fd5b3360008181526012602052604080822054905181156108fc0292818181858888f1935050505015801561139f573d6000803e3d6000fd5b5033600090815260126020526040812055565b600d80546110e3906126fa565b6000818152600260205260409020546060906001600160a01b031661143e5760405162461bcd60e51b815260206004820152602f60248201527f4552433732314d657461646174613a2055524920717565727920666f72206e6f60448201526e3732bc34b9ba32b73a103a37b5b2b760891b6064820152608401610754565b6000611448611b01565b905060008151116114685760405180602001604052806000815250611496565b8061147284611b10565b600d604051602001611486939291906128fa565b6040516020818303038152906040525b9392505050565b600a546001600160a01b031633146114c75760405162461bcd60e51b8152600401610754906126c5565b805161100990600d9060208401906120e4565b600a546001600160a01b031633146115045760405162461bcd60e51b8152600401610754906126c5565b6001600160a01b0381166115695760405162461bcd60e51b815260206004820152602660248201527f4f776e61626c653a206e6577206f776e657220697320746865207a65726f206160448201526564647265737360d01b6064820152608401610754565b610c4c81611993565b60006001600160e01b031982166380ac58cd60e01b14806115a357506001600160e01b03198216635b5e139f60e01b145b8061072457506301ffc9a760e01b6001600160e01b0319831614610724565b600081815260046020526040902080546001600160a01b0319166001600160a01b03841690811790915581906115f78261100d565b6001600160a01b03167f8c5be1e5ebec7d5bd14f71427d1e84f3dd0314c0f7b2291e5b200ac8c7c3b92560405160405180910390a45050565b60008061163f85870187612274565b9092509050600061164f60085490565b60115490915060ff161561166257600080fd5b600f5461166f83836128c3565b116116bc57836013600082825461168691906128c3565b90915550600190505b8281116116b6576116a4846112f583856128c3565b806116ae81612867565b91505061168f565b506116ea565b6001600160a01b038316600090815260126020526040812080548692906116e49084906128c3565b90915550505b505050505050505050565b6000818152600260205260408120546001600160a01b031661176e5760405162461bcd60e51b815260206004820152602c60248201527f4552433732313a206f70657261746f7220717565727920666f72206e6f6e657860448201526b34b9ba32b73a103a37b5b2b760a11b6064820152608401610754565b60006117798361100d565b9050806001600160a01b0316846001600160a01b031614806117c057506001600160a01b0380821660009081526005602090815260408083209388168352929052205460ff165b806117e45750836001600160a01b03166117d984610802565b6001600160a01b0316145b949350505050565b826001600160a01b03166117ff8261100d565b6001600160a01b0316146118635760405162461bcd60e51b815260206004820152602560248201527f4552433732313a207472616e736665722066726f6d20696e636f72726563742060448201526437bbb732b960d91b6064820152608401610754565b6001600160a01b0382166118c55760405162461bcd60e51b8152602060048201526024808201527f4552433732313a207472616e7366657220746f20746865207a65726f206164646044820152637265737360e01b6064820152608401610754565b6118d0838383611c0e565b6118db6000826115c2565b6001600160a01b03831660009081526003602052604081208054600192906119049084906129be565b90915550506001600160a01b03821660009081526003602052604081208054600192906119329084906128c3565b909155505060008181526002602052604080822080546001600160a01b0319166001600160a01b0386811691821790925591518493918716917fddf252ad1be2c89b69c2b068fc378daa952ba7f163c4a11628f55a4df523b3ef91a4505050565b600a80546001600160a01b038381166001600160a01b0319831681179093556040519116919082907f8be0079c531659141344cd1fd0a4f28419497f9722a3daafe3b4186f6b6457e090600090a35050565b611009828260405180602001604052806000815250611cc6565b816001600160a01b0316836001600160a01b03161415611a615760405162461bcd60e51b815260206004820152601960248201527f4552433732313a20617070726f766520746f2063616c6c6572000000000000006044820152606401610754565b6001600160a01b03838116600081815260056020908152604080832094871680845294825291829020805460ff191686151590811790915591519182527f17307eab39ab6107e8899845ad3d59bd9653f200f220920489ca2b5937696c31910160405180910390a3505050565b611ad98484846117ec565b611ae584848484611cf9565b6113495760405162461bcd60e51b8152600401610754906129d5565b6060600c805461077f906126fa565b606081611b345750506040805180820190915260018152600360fc1b602082015290565b8160005b8115611b5e5780611b4881612867565b9150611b579050600a83612a3d565b9150611b38565b60008167ffffffffffffffff811115611b7957611b79612509565b6040519080825280601f01601f191660200182016040528015611ba3576020820181803683370190505b5090505b84156117e457611bb86001836129be565b9150611bc5600a86612a51565b611bd09060306128c3565b60f81b818381518110611be557611be561283b565b60200101906001600160f81b031916908160001a905350611c07600a86612a3d565b9450611ba7565b6001600160a01b038316611c6957611c6481600880546000838152600960205260408120829055600182018355919091527ff3f7a9fe364faab93b216da50a3214154f22a0a2b415b23a84c8169e8b636ee30155565b611c8c565b816001600160a01b0316836001600160a01b031614611c8c57611c8c8382611e06565b6001600160a01b038216611ca3576109a881611ea3565b826001600160a01b0316826001600160a01b0316146109a8576109a88282611f52565b611cd08383611f96565b611cdd6000848484611cf9565b6109a85760405162461bcd60e51b8152600401610754906129d5565b60006001600160a01b0384163b15611dfb57604051630a85bd0160e11b81526001600160a01b0385169063150b7a0290611d3d903390899088908890600401612a65565b602060405180830381600087803b158015611d5757600080fd5b505af1925050508015611d87575060408051601f3d908101601f19168201909252611d8491810190612aa2565b60015b611de1573d808015611db5576040519150601f19603f3d011682016040523d82523d6000602084013e611dba565b606091505b508051611dd95760405162461bcd60e51b8152600401610754906129d5565b805181602001fd5b6001600160e01b031916630a85bd0160e11b1490506117e4565b506001949350505050565b60006001611e1384611164565b611e1d91906129be565b600083815260076020526040902054909150808214611e70576001600160a01b03841660009081526006602090815260408083208584528252808320548484528184208190558352600790915290208190555b5060009182526007602090815260408084208490556001600160a01b039094168352600681528383209183525290812055565b600854600090611eb5906001906129be565b60008381526009602052604081205460088054939450909284908110611edd57611edd61283b565b906000526020600020015490508060088381548110611efe57611efe61283b565b6000918252602080832090910192909255828152600990915260408082208490558582528120556008805480611f3657611f36612abf565b6001900381819060005260206000200160009055905550505050565b6000611f5d83611164565b6001600160a01b039093166000908152600660209081526040808320868452825280832085905593825260079052919091209190915550565b6001600160a01b038216611fec5760405162461bcd60e51b815260206004820181905260248201527f4552433732313a206d696e7420746f20746865207a65726f20616464726573736044820152606401610754565b6000818152600260205260409020546001600160a01b0316156120515760405162461bcd60e51b815260206004820152601c60248201527f4552433732313a20746f6b656e20616c7265616479206d696e746564000000006044820152606401610754565b61205d60008383611c0e565b6001600160a01b03821660009081526003602052604081208054600192906120869084906128c3565b909155505060008181526002602052604080822080546001600160a01b0319166001600160a01b03861690811790915590518392907fddf252ad1be2c89b69c2b068fc378daa952ba7f163c4a11628f55a4df523b3ef908290a45050565b8280546120f0906126fa565b90600052602060002090601f0160209004810192826121125760008555612158565b82601f1061212b57805160ff1916838001178555612158565b82800160010185558215612158579182015b8281111561215857825182559160200191906001019061213d565b50612164929150612168565b5090565b5b808211156121645760008155600101612169565b6001600160e01b031981168114610c4c57600080fd5b6000602082840312156121a557600080fd5b81356114968161217d565b8015158114610c4c57600080fd5b6000602082840312156121d057600080fd5b8135611496816121b0565b60005b838110156121f65781810151838201526020016121de565b838111156113495750506000910152565b6000815180845261221f8160208601602086016121db565b601f01601f19169290920160200192915050565b6020815260006114966020830184612207565b60006020828403121561225857600080fd5b5035919050565b6001600160a01b0381168114610c4c57600080fd5b6000806040838503121561228757600080fd5b82356122928161225f565b946020939093013593505050565b60008083601f8401126122b257600080fd5b50813567ffffffffffffffff8111156122ca57600080fd5b6020830191508360208285010111156122e257600080fd5b9250929050565b60008060008060008060008060008060c08b8d03121561230857600080fd5b8a35995060208b013567ffffffffffffffff8082111561232757600080fd5b6123338e838f016122a0565b909b50995060408d013591508082111561234c57600080fd5b6123588e838f016122a0565b909950975060608d013591508082111561237157600080fd5b61237d8e838f016122a0565b909750955060808d013591508082111561239657600080fd5b506123a38d828e016122a0565b9150809450508092505060a08b013590509295989b9194979a5092959850565b6000806000606084860312156123d857600080fd5b83356123e38161225f565b925060208401356123f38161225f565b929592945050506040919091013590565b60006020828403121561241657600080fd5b81356114968161225f565b6020808252825182820181905260009190848201906040850190845b818110156124595783518352928401929184019160010161243d565b50909695505050505050565b60008060008060008060006080888a03121561248057600080fd5b87359650602088013567ffffffffffffffff8082111561249f57600080fd5b6124ab8b838c016122a0565b909850965060408a01359150808211156124c457600080fd5b6124d08b838c016122a0565b909650945060608a01359150808211156124e957600080fd5b506124f68a828b016122a0565b989b979a50959850939692959293505050565b634e487b7160e01b600052604160045260246000fd5b600067ffffffffffffffff8084111561253a5761253a612509565b604051601f8501601f19908116603f0116810190828211818310171561256257612562612509565b8160405280935085815286868601111561257b57600080fd5b858560208301376000602087830101525050509392505050565b6000602082840312156125a757600080fd5b813567ffffffffffffffff8111156125be57600080fd5b8201601f810184136125cf57600080fd5b6117e48482356020840161251f565b600080604083850312156125f157600080fd5b82356125fc8161225f565b9150602083013561260c816121b0565b809150509250929050565b6000806000806080858703121561262d57600080fd5b84356126388161225f565b935060208501356126488161225f565b925060408501359150606085013567ffffffffffffffff81111561266b57600080fd5b8501601f8101871361267c57600080fd5b61268b8782356020840161251f565b91505092959194509250565b600080604083850312156126aa57600080fd5b82356126b58161225f565b9150602083013561260c8161225f565b6020808252818101527f4f776e61626c653a2063616c6c6572206973206e6f7420746865206f776e6572604082015260600190565b600181811c9082168061270e57607f821691505b6020821081141561272f57634e487b7160e01b600052602260045260246000fd5b50919050565b8183823760009101908152919050565b81835281816020850137506000828201602090810191909152601f909101601f19169091010190565b89815260c06020820152600061278860c083018a8c612745565b828103604084015261279b81898b612745565b905086606084015282810360808401526127b6818688612745565b9150508260a08301529a9950505050505050505050565b6000602082840312156127df57600080fd5b8151611496816121b0565b60208082526031908201527f4552433732313a207472616e736665722063616c6c6572206973206e6f74206f6040820152701ddb995c881b9bdc88185c1c1c9bdd9959607a1b606082015260800190565b634e487b7160e01b600052603260045260246000fd5b634e487b7160e01b600052601160045260246000fd5b600060001982141561287b5761287b612851565b5060010190565b86815260806020820152600061289c608083018789612745565b82810360408401526128af818688612745565b915050826060830152979650505050505050565b600082198211156128d6576128d6612851565b500190565b60008160001904831182151516156128f5576128f5612851565b500290565b60008451602061290d8285838a016121db565b8551918401916129208184848a016121db565b8554920191600090600181811c908083168061293d57607f831692505b85831081141561295b57634e487b7160e01b85526022600452602485fd5b80801561296f5760018114612980576129ad565b60ff198516885283880195506129ad565b60008b81526020902060005b858110156129a55781548a82015290840190880161298c565b505083880195505b50939b9a5050505050505050505050565b6000828210156129d0576129d0612851565b500390565b60208082526032908201527f4552433732313a207472616e7366657220746f206e6f6e20455243373231526560408201527131b2b4bb32b91034b6b83632b6b2b73a32b960711b606082015260800190565b634e487b7160e01b600052601260045260246000fd5b600082612a4c57612a4c612a27565b500490565b600082612a6057612a60612a27565b500690565b6001600160a01b0385811682528416602082015260408101839052608060608201819052600090612a9890830184612207565b9695505050505050565b600060208284031215612ab457600080fd5b81516114968161217d565b634e487b7160e01b600052603160045260246000fdfea2646970667358221220e7363d332af3d251c7415203791df68628e0ecb9ce7d8af3e9fe5849da97367864736f6c63430008090033",
  "linkReferences": {},
  "deployedLinkReferences": {}
}