{
  "_format": "hh-sol-artifact-1",
  "contractName": "MintNFTCrossChain",
  "sourceName": "contracts/MintNFTCrossChain.sol",
  "abi": [
    {
      "inputs": [
        {
          "internalType": "address",
          "name": "_gateway",
          "type": "address"
        },
        {
          "internalType": "address",
          "name": "_gasReceiver",
          "type": "address"
        },
        {
          "internalType": "address",
          "name": "_tokenAddress",
          "type": "address"
        },
        {
          "internalType": "string",
          "name": "_destinationAddress",
          "type": "string"
        },
        {
          "internalType": "string",
          "name": "_destinationChain",
          "type": "string"
        }
      ],
      "stateMutability": "nonpayable",
      "type": "constructor"
    },
    {
      "anonymous": false,
      "inputs": [
        {
          "indexed": false,
          "internalType": "string",
          "name": "name",
          "type": "string"
        },
        {
          "indexed": false,
          "internalType": "uint256",
          "name": "amount",
          "type": "uint256"
        },
        {
          "indexed": false,
          "internalType": "address",
          "name": "from",
          "type": "address"
        },
        {
          "indexed": false,
          "internalType": "address",
          "name": "to",
          "type": "address"
        },
        {
          "indexed": false,
          "internalType": "uint256",
          "name": "timestamp",
          "type": "uint256"
        }
      ],
      "name": "MintEvent",
      "type": "event"
    },
    {
      "anonymous": false,
      "inputs": [
        {
          "indexed": true,
          "internalType": "address",
          "name": "previousOwner",
          "type": "address"
        },
        {
          "indexed": true,
          "internalType": "address",
          "name": "newOwner",
          "type": "address"
        }
      ],
      "name": "OwnershipTransferred",
      "type": "event"
    },
    {
      "inputs": [],
      "name": "axelarGatewayAddress",
      "outputs": [
        {
          "internalType": "address",
          "name": "",
          "type": "address"
        }
      ],
      "stateMutability": "view",
      "type": "function"
    },
    {
      "inputs": [],
      "name": "costNFT",
      "outputs": [
        {
          "internalType": "uint256",
          "name": "",
          "type": "uint256"
        }
      ],
      "stateMutability": "view",
      "type": "function"
    },
    {
      "inputs": [],
      "name": "destinationAddress",
      "outputs": [
        {
          "internalType": "string",
          "name": "",
          "type": "string"
        }
      ],
      "stateMutability": "view",
      "type": "function"
    },
    {
      "inputs": [],
      "name": "destinationChain",
      "outputs": [
        {
          "internalType": "string",
          "name": "",
          "type": "string"
        }
      ],
      "stateMutability": "view",
      "type": "function"
    },
    {
      "inputs": [
        {
          "internalType": "uint256",
          "name": "_mintAmount",
          "type": "uint256"
        }
      ],
      "name": "mint",
      "outputs": [],
      "stateMutability": "payable",
      "type": "function"
    },
    {
      "inputs": [],
      "name": "owner",
      "outputs": [
        {
          "internalType": "address",
          "name": "",
          "type": "address"
        }
      ],
      "stateMutability": "view",
      "type": "function"
    },
    {
      "inputs": [],
      "name": "renounceOwnership",
      "outputs": [],
      "stateMutability": "nonpayable",
      "type": "function"
    },
    {
      "inputs": [
        {
          "internalType": "uint256",
          "name": "_newCost",
          "type": "uint256"
        }
      ],
      "name": "setCostNFT",
      "outputs": [],
      "stateMutability": "nonpayable",
      "type": "function"
    },
    {
      "inputs": [
        {
          "internalType": "string",
          "name": "_newAddress",
          "type": "string"
        }
      ],
      "name": "setDestinationAddress",
      "outputs": [],
      "stateMutability": "nonpayable",
      "type": "function"
    },
    {
      "inputs": [
        {
          "internalType": "string",
          "name": "_newChain",
          "type": "string"
        }
      ],
      "name": "setDestinationChain",
      "outputs": [],
      "stateMutability": "nonpayable",
      "type": "function"
    },
    {
      "inputs": [
        {
          "internalType": "address",
          "name": "_newAddress",
          "type": "address"
        }
      ],
      "name": "setTokenAddress",
      "outputs": [],
      "stateMutability": "nonpayable",
      "type": "function"
    },
    {
      "inputs": [],
      "name": "tokenAddress",
      "outputs": [
        {
          "internalType": "address",
          "name": "",
          "type": "address"
        }
      ],
      "stateMutability": "view",
      "type": "function"
    },
    {
      "inputs": [
        {
          "internalType": "address",
          "name": "newOwner",
          "type": "address"
        }
      ],
      "name": "transferOwnership",
      "outputs": [],
      "stateMutability": "nonpayable",
      "type": "function"
    }
  ],
  "bytecode": "0x608060405260006006553480156200001657600080fd5b5060405162001343380380620013438339810160408190526200003991620002b2565b6200004433620000d2565b600180546001600160a01b03199081166001600160a01b038881169182179093556002805483168885169081179091556005805484169488169490941790935560078054831690911790556008805490911690911790558151620000b090600390602085019062000122565b508051620000c690600490602084019062000122565b50505050505062000392565b600080546001600160a01b038381166001600160a01b0319831681178455604051919092169283917f8be0079c531659141344cd1fd0a4f28419497f9722a3daafe3b4186f6b6457e09190a35050565b828054620001309062000355565b90600052602060002090601f0160209004810192826200015457600085556200019f565b82601f106200016f57805160ff19168380011785556200019f565b828001600101855582156200019f579182015b828111156200019f57825182559160200191906001019062000182565b50620001ad929150620001b1565b5090565b5b80821115620001ad5760008155600101620001b2565b80516001600160a01b0381168114620001e057600080fd5b919050565b634e487b7160e01b600052604160045260246000fd5b600082601f8301126200020d57600080fd5b81516001600160401b03808211156200022a576200022a620001e5565b604051601f8301601f19908116603f01168101908282118183101715620002555762000255620001e5565b816040528381526020925086838588010111156200027257600080fd5b600091505b8382101562000296578582018301518183018401529082019062000277565b83821115620002a85760008385830101525b9695505050505050565b600080600080600060a08688031215620002cb57600080fd5b620002d686620001c8565b9450620002e660208701620001c8565b9350620002f660408701620001c8565b60608701519093506001600160401b03808211156200031457600080fd5b6200032289838a01620001fb565b935060808801519150808211156200033957600080fd5b506200034888828901620001fb565b9150509295509295909350565b600181811c908216806200036a57607f821691505b602082108114156200038c57634e487b7160e01b600052602260045260246000fd5b50919050565b610fa180620003a26000396000f3fe6080604052600436106100c25760003560e01c8063a0712d681161007f578063ca32546911610059578063ca325469146101ec578063f2fde38b1461020e578063f6a7668a1461022e578063fd1337a61461024e57600080fd5b8063a0712d6814610199578063b0b65cba146101ac578063c413edce146101cc57600080fd5b80630cf58bd6146100c757806326a4e8d2146100f05780633dade09514610112578063715018a6146101325780638da5cb5b146101475780639d76ea5814610179575b600080fd5b3480156100d357600080fd5b506100dd60065481565b6040519081526020015b60405180910390f35b3480156100fc57600080fd5b5061011061010b366004610a67565b610263565b005b34801561011e57600080fd5b5061011061012d366004610a97565b6102b8565b34801561013e57600080fd5b506101106102e7565b34801561015357600080fd5b506000546001600160a01b03165b6040516001600160a01b0390911681526020016100e7565b34801561018557600080fd5b50600554610161906001600160a01b031681565b6101106101a7366004610a97565b61031d565b3480156101b857600080fd5b506101106101c7366004610ac6565b6106c4565b3480156101d857600080fd5b50600754610161906001600160a01b031681565b3480156101f857600080fd5b50610201610705565b6040516100e79190610bd3565b34801561021a57600080fd5b50610110610229366004610a67565b610793565b34801561023a57600080fd5b50610110610249366004610ac6565b61082e565b34801561025a57600080fd5b5061020161086b565b6000546001600160a01b031633146102965760405162461bcd60e51b815260040161028d90610be6565b60405180910390fd5b600580546001600160a01b0319166001600160a01b0392909216919091179055565b6000546001600160a01b031633146102e25760405162461bcd60e51b815260040161028d90610be6565b600655565b6000546001600160a01b031633146103115760405162461bcd60e51b815260040161028d90610be6565b61031b6000610878565b565b60006006548261032d9190610c31565b6005546040516370a0823160e01b815233600482015291925082916001600160a01b03909116906370a082319060240160206040518083038186803b15801561037557600080fd5b505afa158015610389573d6000803e3d6000fd5b505050506040513d601f19601f820116820180604052508101906103ad9190610c50565b10156103b857600080fd5b6005546040516323b872dd60e01b8152336004820152306024820152604481018390526001600160a01b03909116906323b872dd90606401602060405180830381600087803b15801561040a57600080fd5b505af115801561041e573d6000803e3d6000fd5b505050506040513d601f19601f820116820180604052508101906104429190610c69565b5060055460075460405163095ea7b360e01b81526001600160a01b0391821660048201526024810184905291169063095ea7b390604401602060405180830381600087803b15801561049357600080fd5b505af11580156104a7573d6000803e3d6000fd5b505050506040513d601f19601f820116820180604052508101906104cb9190610c69565b5060055460085460405163095ea7b360e01b81526001600160a01b0391821660048201526024810184905291169063095ea7b390604401602060405180830381600087803b15801561051c57600080fd5b505af1158015610530573d6000803e3d6000fd5b505050506040513d601f19601f820116820180604052508101906105549190610c69565b506040805133602082018190528183018590528251808303840181526060830193849052600254636316100160e11b909452926001600160a01b03169163c62c20029134916105b191309160049160039189918b91606401610d66565b6000604051808303818588803b1580156105ca57600080fd5b505af11580156105de573d6000803e3d6000fd5b5050600154604051632d505c2160e21b81526001600160a01b03909116935063b5417084925061061a9150600490600390869088908401610de5565b600060405180830381600087803b15801561063457600080fd5b505af1158015610648573d6000803e3d6000fd5b505050507fac949cd39f0300ad7a16bb5c513286b1048b6ee22f58b95fc8637dc4f315a616610676846108c8565b6040516020016106869190610e4b565b604051602081830303815290604052846006546106a39190610c31565b3330426040516106b7959493929190610e8f565b60405180910390a1505050565b6000546001600160a01b031633146106ee5760405162461bcd60e51b815260040161028d90610be6565b80516107019060039060208401906109ce565b5050565b6003805461071290610c8b565b80601f016020809104026020016040519081016040528092919081815260200182805461073e90610c8b565b801561078b5780601f106107605761010080835404028352916020019161078b565b820191906000526020600020905b81548152906001019060200180831161076e57829003601f168201915b505050505081565b6000546001600160a01b031633146107bd5760405162461bcd60e51b815260040161028d90610be6565b6001600160a01b0381166108225760405162461bcd60e51b815260206004820152602660248201527f4f776e61626c653a206e6577206f776e657220697320746865207a65726f206160448201526564647265737360d01b606482015260840161028d565b61082b81610878565b50565b6000546001600160a01b031633146108585760405162461bcd60e51b815260040161028d90610be6565b80516107019060049060208401906109ce565b6004805461071290610c8b565b600080546001600160a01b038381166001600160a01b0319831681178455604051919092169283917f8be0079c531659141344cd1fd0a4f28419497f9722a3daafe3b4186f6b6457e09190a35050565b6060816108ec5750506040805180820190915260018152600360fc1b602082015290565b8160005b8115610916578061090081610ecd565b915061090f9050600a83610efe565b91506108f0565b60008167ffffffffffffffff81111561093157610931610ab0565b6040519080825280601f01601f19166020018201604052801561095b576020820181803683370190505b5090505b84156109c657610970600183610f12565b915061097d600a86610f29565b610988906030610f3d565b60f81b81838151811061099d5761099d610f55565b60200101906001600160f81b031916908160001a9053506109bf600a86610efe565b945061095f565b949350505050565b8280546109da90610c8b565b90600052602060002090601f0160209004810192826109fc5760008555610a42565b82601f10610a1557805160ff1916838001178555610a42565b82800160010185558215610a42579182015b82811115610a42578251825591602001919060010190610a27565b50610a4e929150610a52565b5090565b5b80821115610a4e5760008155600101610a53565b600060208284031215610a7957600080fd5b81356001600160a01b0381168114610a9057600080fd5b9392505050565b600060208284031215610aa957600080fd5b5035919050565b634e487b7160e01b600052604160045260246000fd5b600060208284031215610ad857600080fd5b813567ffffffffffffffff80821115610af057600080fd5b818401915084601f830112610b0457600080fd5b813581811115610b1657610b16610ab0565b604051601f8201601f19908116603f01168101908382118183101715610b3e57610b3e610ab0565b81604052828152876020848701011115610b5757600080fd5b826020860160208301376000928101602001929092525095945050505050565b60005b83811015610b92578181015183820152602001610b7a565b83811115610ba1576000848401525b50505050565b60008151808452610bbf816020860160208601610b77565b601f01601f19169290920160200192915050565b602081526000610a906020830184610ba7565b6020808252818101527f4f776e61626c653a2063616c6c6572206973206e6f7420746865206f776e6572604082015260600190565b634e487b7160e01b600052601160045260246000fd5b6000816000190483118215151615610c4b57610c4b610c1b565b500290565b600060208284031215610c6257600080fd5b5051919050565b600060208284031215610c7b57600080fd5b81518015158114610a9057600080fd5b600181811c90821680610c9f57607f821691505b60208210811415610cc057634e487b7160e01b600052602260045260246000fd5b50919050565b8054600090600181811c9080831680610ce057607f831692505b6020808410821415610d0257634e487b7160e01b600052602260045260246000fd5b83885260208801828015610d1d5760018114610d2e57610d59565b60ff19871682528282019750610d59565b60008981526020902060005b87811015610d5357815484820152908601908401610d3a565b83019850505b5050505050505092915050565b600060018060a01b03808916835260e06020840152610d8860e0840189610cc6565b8381036040850152610d9a8189610cc6565b90508381036060850152610dae8188610ba7565b848103608086015260038152621554d560ea1b602082015260a0850196909652509290921660c09091015250604001949350505050565b60a081526000610df860a0830187610cc6565b8281036020840152610e0a8187610cc6565b90508281036040840152610e1e8186610ba7565b838103606085015260038152621554d560ea1b602082015260809093019390935250604001949350505050565b63135a5b9d60e21b8152600160fd1b600482015260008251610e74816005850160208701610b77565b630813919560e21b6005939091019283015250600901919050565b60a081526000610ea260a0830188610ba7565b6020830196909652506001600160a01b03938416604082015291909216606082015260800152919050565b6000600019821415610ee157610ee1610c1b565b5060010190565b634e487b7160e01b600052601260045260246000fd5b600082610f0d57610f0d610ee8565b500490565b600082821015610f2457610f24610c1b565b500390565b600082610f3857610f38610ee8565b500690565b60008219821115610f5057610f50610c1b565b500190565b634e487b7160e01b600052603260045260246000fdfea2646970667358221220b618cf6c8d5e22cff1bd6889d20cd3550bbded5100c644c26e1500f3e658138964736f6c63430008090033",
  "linkReferences": {},
  "deployedLinkReferences": {}
}