{
  "_format": "hh-sol-artifact-1",
  "contractName": "NftLinker",
  "sourceName": "contracts/ConverseNftAnyChain.sol",
  "abi": [
    {
      "inputs": [
        {
          "internalType": "string",
          "name": "chainName_",
          "type": "string"
        },
        {
          "internalType": "address",
          "name": "gateway",
          "type": "address"
        },
        {
          "internalType": "contract IAxelarGasReceiver",
          "name": "receiver",
          "type": "address"
        },
        {
          "internalType": "string",
          "name": "_initBaseURI",
          "type": "string"
        }
      ],
      "stateMutability": "nonpayable",
      "type": "constructor"
    },
    {
      "inputs": [],
      "name": "NotApprovedByGateway",
      "type": "error"
    },
    {
      "anonymous": false,
      "inputs": [
        {
          "indexed": true,
          "internalType": "address",
          "name": "owner",
          "type": "address"
        },
        {
          "indexed": true,
          "internalType": "address",
          "name": "approved",
          "type": "address"
        },
        {
          "indexed": true,
          "internalType": "uint256",
          "name": "tokenId",
          "type": "uint256"
        }
      ],
      "name": "Approval",
      "type": "event"
    },
    {
      "anonymous": false,
      "inputs": [
        {
          "indexed": true,
          "internalType": "address",
          "name": "owner",
          "type": "address"
        },
        {
          "indexed": true,
          "internalType": "address",
          "name": "operator",
          "type": "address"
        },
        {
          "indexed": false,
          "internalType": "bool",
          "name": "approved",
          "type": "bool"
        }
      ],
      "name": "ApprovalForAll",
      "type": "event"
    },
    {
      "anonymous": false,
      "inputs": [
        {
          "indexed": false,
          "internalType": "string",
          "name": "fromChain",
          "type": "string"
        },
        {
          "indexed": false,
          "internalType": "string",
          "name": "toChain",
          "type": "string"
        },
        {
          "indexed": false,
          "internalType": "uint256",
          "name": "tokenId",
          "type": "uint256"
        },
        {
          "indexed": false,
          "internalType": "address",
          "name": "sourceAddress",
          "type": "address"
        },
        {
          "indexed": false,
          "internalType": "address",
          "name": "destinationAddress",
          "type": "address"
        },
        {
          "indexed": false,
          "internalType": "uint256",
          "name": "date",
          "type": "uint256"
        }
      ],
      "name": "ConverseNFT",
      "type": "event"
    },
    {
      "anonymous": false,
      "inputs": [
        {
          "indexed": true,
          "internalType": "address",
          "name": "previousOwner",
          "type": "address"
        },
        {
          "indexed": true,
          "internalType": "address",
          "name": "newOwner",
          "type": "address"
        }
      ],
      "name": "OwnershipTransferred",
      "type": "event"
    },
    {
      "anonymous": false,
      "inputs": [
        {
          "indexed": false,
          "internalType": "string",
          "name": "fromChain",
          "type": "string"
        },
        {
          "indexed": false,
          "internalType": "uint256",
          "name": "tokenId",
          "type": "uint256"
        },
        {
          "indexed": false,
          "internalType": "address",
          "name": "fromAddress",
          "type": "address"
        },
        {
          "indexed": false,
          "internalType": "uint256",
          "name": "date",
          "type": "uint256"
        }
      ],
      "name": "ReceiveNFT",
      "type": "event"
    },
    {
      "anonymous": false,
      "inputs": [
        {
          "indexed": true,
          "internalType": "address",
          "name": "from",
          "type": "address"
        },
        {
          "indexed": true,
          "internalType": "address",
          "name": "to",
          "type": "address"
        },
        {
          "indexed": true,
          "internalType": "uint256",
          "name": "tokenId",
          "type": "uint256"
        }
      ],
      "name": "Transfer",
      "type": "event"
    },
    {
      "inputs": [
        {
          "internalType": "string",
          "name": "chain",
          "type": "string"
        },
        {
          "internalType": "string",
          "name": "linker",
          "type": "string"
        }
      ],
      "name": "addLinker",
      "outputs": [],
      "stateMutability": "nonpayable",
      "type": "function"
    },
    {
      "inputs": [
        {
          "internalType": "address",
          "name": "to",
          "type": "address"
        },
        {
          "internalType": "uint256",
          "name": "tokenId",
          "type": "uint256"
        }
      ],
      "name": "approve",
      "outputs": [],
      "stateMutability": "nonpayable",
      "type": "function"
    },
    {
      "inputs": [
        {
          "internalType": "address",
          "name": "owner",
          "type": "address"
        }
      ],
      "name": "balanceOf",
      "outputs": [
        {
          "internalType": "uint256",
          "name": "",
          "type": "uint256"
        }
      ],
      "stateMutability": "view",
      "type": "function"
    },
    {
      "inputs": [],
      "name": "baseExtension",
      "outputs": [
        {
          "internalType": "string",
          "name": "",
          "type": "string"
        }
      ],
      "stateMutability": "view",
      "type": "function"
    },
    {
      "inputs": [
        {
          "internalType": "bytes32",
          "name": "commandId",
          "type": "bytes32"
        },
        {
          "internalType": "string",
          "name": "sourceChain",
          "type": "string"
        },
        {
          "internalType": "string",
          "name": "sourceAddress",
          "type": "string"
        },
        {
          "internalType": "bytes",
          "name": "payload",
          "type": "bytes"
        }
      ],
      "name": "execute",
      "outputs": [],
      "stateMutability": "nonpayable",
      "type": "function"
    },
    {
      "inputs": [
        {
          "internalType": "bytes32",
          "name": "commandId",
          "type": "bytes32"
        },
        {
          "internalType": "string",
          "name": "sourceChain",
          "type": "string"
        },
        {
          "internalType": "string",
          "name": "sourceAddress",
          "type": "string"
        },
        {
          "internalType": "bytes",
          "name": "payload",
          "type": "bytes"
        },
        {
          "internalType": "string",
          "name": "tokenSymbol",
          "type": "string"
        },
        {
          "internalType": "uint256",
          "name": "amount",
          "type": "uint256"
        }
      ],
      "name": "executeWithToken",
      "outputs": [],
      "stateMutability": "nonpayable",
      "type": "function"
    },
    {
      "inputs": [],
      "name": "gateway",
      "outputs": [
        {
          "internalType": "contract IAxelarGateway",
          "name": "",
          "type": "address"
        }
      ],
      "stateMutability": "view",
      "type": "function"
    },
    {
      "inputs": [
        {
          "internalType": "uint256",
          "name": "tokenId",
          "type": "uint256"
        }
      ],
      "name": "getApproved",
      "outputs": [
        {
          "internalType": "address",
          "name": "",
          "type": "address"
        }
      ],
      "stateMutability": "view",
      "type": "function"
    },
    {
      "inputs": [
        {
          "internalType": "address",
          "name": "owner",
          "type": "address"
        },
        {
          "internalType": "address",
          "name": "operator",
          "type": "address"
        }
      ],
      "name": "isApprovedForAll",
      "outputs": [
        {
          "internalType": "bool",
          "name": "",
          "type": "bool"
        }
      ],
      "stateMutability": "view",
      "type": "function"
    },
    {
      "inputs": [
        {
          "internalType": "string",
          "name": "",
          "type": "string"
        }
      ],
      "name": "linkers",
      "outputs": [
        {
          "internalType": "string",
          "name": "",
          "type": "string"
        }
      ],
      "stateMutability": "view",
      "type": "function"
    },
    {
      "inputs": [],
      "name": "name",
      "outputs": [
        {
          "internalType": "string",
          "name": "",
          "type": "string"
        }
      ],
      "stateMutability": "view",
      "type": "function"
    },
    {
      "inputs": [
        {
          "internalType": "uint256",
          "name": "",
          "type": "uint256"
        }
      ],
      "name": "original",
      "outputs": [
        {
          "internalType": "bytes",
          "name": "",
          "type": "bytes"
        }
      ],
      "stateMutability": "view",
      "type": "function"
    },
    {
      "inputs": [],
      "name": "owner",
      "outputs": [
        {
          "internalType": "address",
          "name": "",
          "type": "address"
        }
      ],
      "stateMutability": "view",
      "type": "function"
    },
    {
      "inputs": [
        {
          "internalType": "uint256",
          "name": "tokenId",
          "type": "uint256"
        }
      ],
      "name": "ownerOf",
      "outputs": [
        {
          "internalType": "address",
          "name": "",
          "type": "address"
        }
      ],
      "stateMutability": "view",
      "type": "function"
    },
    {
      "inputs": [],
      "name": "renounceOwnership",
      "outputs": [],
      "stateMutability": "nonpayable",
      "type": "function"
    },
    {
      "inputs": [
        {
          "internalType": "address",
          "name": "from",
          "type": "address"
        },
        {
          "internalType": "address",
          "name": "to",
          "type": "address"
        },
        {
          "internalType": "uint256",
          "name": "tokenId",
          "type": "uint256"
        }
      ],
      "name": "safeTransferFrom",
      "outputs": [],
      "stateMutability": "nonpayable",
      "type": "function"
    },
    {
      "inputs": [
        {
          "internalType": "address",
          "name": "from",
          "type": "address"
        },
        {
          "internalType": "address",
          "name": "to",
          "type": "address"
        },
        {
          "internalType": "uint256",
          "name": "tokenId",
          "type": "uint256"
        },
        {
          "internalType": "bytes",
          "name": "_data",
          "type": "bytes"
        }
      ],
      "name": "safeTransferFrom",
      "outputs": [],
      "stateMutability": "nonpayable",
      "type": "function"
    },
    {
      "inputs": [
        {
          "internalType": "uint256",
          "name": "tokenId",
          "type": "uint256"
        },
        {
          "internalType": "string",
          "name": "destinationChain",
          "type": "string"
        },
        {
          "internalType": "address",
          "name": "destinationAddress",
          "type": "address"
        },
        {
          "internalType": "uint256",
          "name": "amountFree",
          "type": "uint256"
        }
      ],
      "name": "sendNFT",
      "outputs": [],
      "stateMutability": "payable",
      "type": "function"
    },
    {
      "inputs": [
        {
          "internalType": "address",
          "name": "operator",
          "type": "address"
        },
        {
          "internalType": "bool",
          "name": "approved",
          "type": "bool"
        }
      ],
      "name": "setApprovalForAll",
      "outputs": [],
      "stateMutability": "nonpayable",
      "type": "function"
    },
    {
      "inputs": [
        {
          "internalType": "string",
          "name": "_newBaseURI",
          "type": "string"
        }
      ],
      "name": "setBaseURI",
      "outputs": [],
      "stateMutability": "nonpayable",
      "type": "function"
    },
    {
      "inputs": [
        {
          "internalType": "bytes4",
          "name": "interfaceId",
          "type": "bytes4"
        }
      ],
      "name": "supportsInterface",
      "outputs": [
        {
          "internalType": "bool",
          "name": "",
          "type": "bool"
        }
      ],
      "stateMutability": "view",
      "type": "function"
    },
    {
      "inputs": [],
      "name": "symbol",
      "outputs": [
        {
          "internalType": "string",
          "name": "",
          "type": "string"
        }
      ],
      "stateMutability": "view",
      "type": "function"
    },
    {
      "inputs": [
        {
          "internalType": "uint256",
          "name": "index",
          "type": "uint256"
        }
      ],
      "name": "tokenByIndex",
      "outputs": [
        {
          "internalType": "uint256",
          "name": "",
          "type": "uint256"
        }
      ],
      "stateMutability": "view",
      "type": "function"
    },
    {
      "inputs": [
        {
          "internalType": "address",
          "name": "owner",
          "type": "address"
        },
        {
          "internalType": "uint256",
          "name": "index",
          "type": "uint256"
        }
      ],
      "name": "tokenOfOwnerByIndex",
      "outputs": [
        {
          "internalType": "uint256",
          "name": "",
          "type": "uint256"
        }
      ],
      "stateMutability": "view",
      "type": "function"
    },
    {
      "inputs": [
        {
          "internalType": "uint256",
          "name": "tokenId",
          "type": "uint256"
        }
      ],
      "name": "tokenURI",
      "outputs": [
        {
          "internalType": "string",
          "name": "",
          "type": "string"
        }
      ],
      "stateMutability": "view",
      "type": "function"
    },
    {
      "inputs": [],
      "name": "totalSupply",
      "outputs": [
        {
          "internalType": "uint256",
          "name": "",
          "type": "uint256"
        }
      ],
      "stateMutability": "view",
      "type": "function"
    },
    {
      "inputs": [
        {
          "internalType": "address",
          "name": "from",
          "type": "address"
        },
        {
          "internalType": "address",
          "name": "to",
          "type": "address"
        },
        {
          "internalType": "uint256",
          "name": "tokenId",
          "type": "uint256"
        }
      ],
      "name": "transferFrom",
      "outputs": [],
      "stateMutability": "nonpayable",
      "type": "function"
    },
    {
      "inputs": [
        {
          "internalType": "address",
          "name": "newOwner",
          "type": "address"
        }
      ],
      "name": "transferOwnership",
      "outputs": [],
      "stateMutability": "nonpayable",
      "type": "function"
    },
    {
      "inputs": [
        {
          "internalType": "address",
          "name": "_owner",
          "type": "address"
        }
      ],
      "name": "walletOfOwner",
      "outputs": [
        {
          "internalType": "uint256[]",
          "name": "",
          "type": "uint256[]"
        }
      ],
      "stateMutability": "view",
      "type": "function"
    },
    {
      "inputs": [],
      "name": "withdraw",
      "outputs": [],
      "stateMutability": "nonpayable",
      "type": "function"
    }
  ],
  "bytecode": "0x60c06040526005608081905264173539b7b760d91b60a0908152620000289160119190620001ae565b503480156200003657600080fd5b506040516200328b3803806200328b83398101604081905262000059916200033a565b604080518082018252601181527026a1a927a9a99021a7a62622a1aa24a7a760791b6020808301918252835180850190945260068452654d43524f535360d01b908401528151869391620000b19160009190620001ae565b508051620000c7906001906020840190620001ae565b5050600a80546001600160a01b0319166001600160a01b03939093169290921790915550620000fd620000f73390565b62000143565b835162000112906010906020870190620001ae565b50600e80546001600160a01b0319166001600160a01b038416179055620001398162000195565b505050506200040c565b600b80546001600160a01b038381166001600160a01b0319831681179093556040519116919082907f8be0079c531659141344cd1fd0a4f28419497f9722a3daafe3b4186f6b6457e090600090a35050565b8051620001aa90600f906020840190620001ae565b5050565b828054620001bc90620003cf565b90600052602060002090601f016020900481019282620001e057600085556200022b565b82601f10620001fb57805160ff19168380011785556200022b565b828001600101855582156200022b579182015b828111156200022b5782518255916020019190600101906200020e565b50620002399291506200023d565b5090565b5b808211156200023957600081556001016200023e565b634e487b7160e01b600052604160045260246000fd5b600082601f8301126200027c57600080fd5b81516001600160401b038082111562000299576200029962000254565b604051601f8301601f19908116603f01168101908282118183101715620002c457620002c462000254565b81604052838152602092508683858801011115620002e157600080fd5b600091505b83821015620003055785820183015181830184015290820190620002e6565b83821115620003175760008385830101525b9695505050505050565b6001600160a01b03811681146200033757600080fd5b50565b600080600080608085870312156200035157600080fd5b84516001600160401b03808211156200036957600080fd5b62000377888389016200026a565b9550602087015191506200038b8262000321565b60408701519194506200039e8262000321565b606087015191935080821115620003b457600080fd5b50620003c3878288016200026a565b91505092959194509250565b600181811c90821680620003e457607f821691505b602082108114156200040657634e487b7160e01b600052602260045260246000fd5b50919050565b612e6f806200041c6000396000f3fe6080604052600436106101cd5760003560e01c80636352211e116100f75780639b15a0a711610095578063c87b56dd11610064578063c87b56dd14610521578063e985e9c514610541578063eceaec2d1461058a578063f2fde38b1461059d57600080fd5b80639b15a0a7146104ac578063a22cb465146104cc578063b88d4fde146104ec578063c66828621461050c57600080fd5b8063717eb03f116100d1578063717eb03f146104395780638afe1896146104595780638da5cb5b1461047957806395d89b411461049757600080fd5b80636352211e146103e457806370a0823114610404578063715018a61461042457600080fd5b806323b872dd1161016f578063438b63001161013e578063438b63001461035757806349160658146103845780634f6ccce7146103a457806355f804b3146103c457600080fd5b806323b872dd146102e25780632f745c59146103025780633ccfd60b1461032257806342842e0e1461033757600080fd5b8063095ea7b3116101ab578063095ea7b314610261578063116191b61461028357806318160ddd146102a35780631a98b2e0146102c257600080fd5b806301ffc9a7146101d257806306fdde0314610207578063081812fc14610229575b600080fd5b3480156101de57600080fd5b506101f26101ed366004612119565b6105bd565b60405190151581526020015b60405180910390f35b34801561021357600080fd5b5061021c6105e8565b6040516101fe919061218e565b34801561023557600080fd5b506102496102443660046121a1565b61067a565b6040516001600160a01b0390911681526020016101fe565b34801561026d57600080fd5b5061028161027c3660046121cf565b610714565b005b34801561028f57600080fd5b50600a54610249906001600160a01b031681565b3480156102af57600080fd5b506008545b6040519081526020016101fe565b3480156102ce57600080fd5b506102816102dd366004612243565b61082a565b3480156102ee57600080fd5b506102816102fd36600461231c565b6109ac565b34801561030e57600080fd5b506102b461031d3660046121cf565b6109dd565b34801561032e57600080fd5b50610281610a73565b34801561034357600080fd5b5061028161035236600461231c565b610acc565b34801561036357600080fd5b5061037761037236600461235d565b610ae7565b6040516101fe919061237a565b34801561039057600080fd5b5061028161039f3660046123be565b610b88565b3480156103b057600080fd5b506102b46103bf3660046121a1565b610ccb565b3480156103d057600080fd5b506102816103df36600461252c565b610d5e565b3480156103f057600080fd5b506102496103ff3660046121a1565b610d75565b34801561041057600080fd5b506102b461041f36600461235d565b610dec565b34801561043057600080fd5b50610281610e73565b34801561044557600080fd5b5061021c6104543660046121a1565b610ea9565b34801561046557600080fd5b5061021c61047436600461252c565b610f43565b34801561048557600080fd5b50600b546001600160a01b0316610249565b3480156104a357600080fd5b5061021c610f67565b3480156104b857600080fd5b506102816104c7366004612560565b610f76565b3480156104d857600080fd5b506102816104e73660046125d1565b610fa8565b3480156104f857600080fd5b5061028161050736600461260a565b610fb3565b34801561051857600080fd5b5061021c610feb565b34801561052d57600080fd5b5061021c61053c3660046121a1565b610ff8565b34801561054d57600080fd5b506101f261055c366004612689565b6001600160a01b03918216600090815260056020908152604080832093909416825291909152205460ff1690565b6102816105983660046126b7565b6110d6565b3480156105a957600080fd5b506102816105b836600461235d565b6110e2565b60006001600160e01b0319821663780e9d6360e01b14806105e257506105e28261117a565b92915050565b6060600080546105f790612717565b80601f016020809104026020016040519081016040528092919081815260200182805461062390612717565b80156106705780601f1061064557610100808354040283529160200191610670565b820191906000526020600020905b81548152906001019060200180831161065357829003601f168201915b5050505050905090565b6000818152600260205260408120546001600160a01b03166106f85760405162461bcd60e51b815260206004820152602c60248201527f4552433732313a20617070726f76656420717565727920666f72206e6f6e657860448201526b34b9ba32b73a103a37b5b2b760a11b60648201526084015b60405180910390fd5b506000908152600460205260409020546001600160a01b031690565b600061071f82610d75565b9050806001600160a01b0316836001600160a01b0316141561078d5760405162461bcd60e51b815260206004820152602160248201527f4552433732313a20617070726f76616c20746f2063757272656e74206f776e656044820152603960f91b60648201526084016106ef565b336001600160a01b03821614806107a957506107a9813361055c565b61081b5760405162461bcd60e51b815260206004820152603860248201527f4552433732313a20617070726f76652063616c6c6572206973206e6f74206f7760448201527f6e6572206e6f7220617070726f76656420666f7220616c6c000000000000000060648201526084016106ef565b61082583836111ca565b505050565b6000858560405161083c929190612752565b604051908190038120600a54631876eed960e01b83529092506001600160a01b031690631876eed990610883908e908e908e908e908e9089908d908d908d9060040161278b565b602060405180830381600087803b15801561089d57600080fd5b505af11580156108b1573d6000803e3d6000fd5b505050506040513d601f19601f820116820180604052508101906108d591906127ea565b6108f257604051631403112d60e21b815260040160405180910390fd5b61099f8a8a8080601f01602080910402602001604051908101604052809392919081815260200183838082843760009201919091525050604080516020601f8e018190048102820181019092528c815292508c91508b908190840183828082843760009201919091525050604080516020601f8b018190048102820181019092528981528c93508b9250908a908a90819084018382808284376000920191909152508a9250611238915050565b5050505050505050505050565b6109b63382611240565b6109d25760405162461bcd60e51b81526004016106ef90612807565b610825838383611337565b60006109e883610dec565b8210610a4a5760405162461bcd60e51b815260206004820152602b60248201527f455243373231456e756d657261626c653a206f776e657220696e646578206f7560448201526a74206f6620626f756e647360a81b60648201526084016106ef565b506001600160a01b03919091166000908152600660209081526040808320938352929052205490565b600b546001600160a01b03163314610a9d5760405162461bcd60e51b81526004016106ef90612858565b60405133904780156108fc02916000818181858888f19350505050158015610ac9573d6000803e3d6000fd5b50565b61082583838360405180602001604052806000815250610fb3565b60606000610af483610dec565b90506000816001600160401b03811115610b1057610b10612461565b604051908082528060200260200182016040528015610b39578160200160208202803683370190505b50905060005b82811015610b8057610b5185826109dd565b828281518110610b6357610b6361288d565b602090810291909101015280610b78816128b9565b915050610b3f565b509392505050565b60008282604051610b9a929190612752565b604051908190038120600a54635f6970c360e01b83529092506001600160a01b031690635f6970c390610bdb908b908b908b908b908b9089906004016128d4565b602060405180830381600087803b158015610bf557600080fd5b505af1158015610c09573d6000803e3d6000fd5b505050506040513d601f19601f82011682018060405250810190610c2d91906127ea565b610c4a57604051631403112d60e21b815260040160405180910390fd5b610cc187878080601f01602080910402602001604051908101604052809392919081815260200183838082843760009201919091525050604080516020601f8b0181900481028201810190925289815292508991508890819084018382808284376000920191909152508892508791506114de9050565b5050505050505050565b6000610cd660085490565b8210610d395760405162461bcd60e51b815260206004820152602c60248201527f455243373231456e756d657261626c653a20676c6f62616c20696e646578206f60448201526b7574206f6620626f756e647360a01b60648201526084016106ef565b60088281548110610d4c57610d4c61288d565b90600052602060002001549050919050565b8051610d7190600f90602084019061206a565b5050565b6000818152600260205260408120546001600160a01b0316806105e25760405162461bcd60e51b815260206004820152602960248201527f4552433732313a206f776e657220717565727920666f72206e6f6e657869737460448201526832b73a103a37b5b2b760b91b60648201526084016106ef565b60006001600160a01b038216610e575760405162461bcd60e51b815260206004820152602a60248201527f4552433732313a2062616c616e636520717565727920666f7220746865207a65604482015269726f206164647265737360b01b60648201526084016106ef565b506001600160a01b031660009081526003602052604090205490565b600b546001600160a01b03163314610e9d5760405162461bcd60e51b81526004016106ef90612858565b610ea76000611611565b565b600c6020526000908152604090208054610ec290612717565b80601f0160208091040260200160405190810160405280929190818152602001828054610eee90612717565b8015610f3b5780601f10610f1057610100808354040283529160200191610f3b565b820191906000526020600020905b815481529060010190602001808311610f1e57829003601f168201915b505050505081565b8051602081830181018051600d8252928201919093012091528054610ec290612717565b6060600180546105f790612717565b80600d83604051610f879190612915565b9081526020016040518091039020908051906020019061082592919061206a565b610d71338383611663565b610fbd3383611240565b610fd95760405162461bcd60e51b81526004016106ef90612807565b610fe584848484611732565b50505050565b60118054610ec290612717565b6000818152600260205260409020546060906001600160a01b03166110775760405162461bcd60e51b815260206004820152602f60248201527f4552433732314d657461646174613a2055524920717565727920666f72206e6f60448201526e3732bc34b9ba32b73a103a37b5b2b760891b60648201526084016106ef565b6000611081611765565b905060008151116110a157604051806020016040528060008152506110cf565b806110ab84611774565b60116040516020016110bf939291906129a0565b6040516020818303038152906040525b9392505050565b610fe584848484611871565b600b546001600160a01b0316331461110c5760405162461bcd60e51b81526004016106ef90612858565b6001600160a01b0381166111715760405162461bcd60e51b815260206004820152602660248201527f4f776e61626c653a206e6577206f776e657220697320746865207a65726f206160448201526564647265737360d01b60648201526084016106ef565b610ac981611611565b60006001600160e01b031982166380ac58cd60e01b14806111ab57506001600160e01b03198216635b5e139f60e01b145b806105e257506301ffc9a760e01b6001600160e01b03198316146105e2565b600081815260046020526040902080546001600160a01b0319166001600160a01b03841690811790915581906111ff82610d75565b6001600160a01b03167f8c5be1e5ebec7d5bd14f71427d1e84f3dd0314c0f7b2291e5b200ac8c7c3b92560405160405180910390a45050565b505050505050565b6000818152600260205260408120546001600160a01b03166112b95760405162461bcd60e51b815260206004820152602c60248201527f4552433732313a206f70657261746f7220717565727920666f72206e6f6e657860448201526b34b9ba32b73a103a37b5b2b760a11b60648201526084016106ef565b60006112c483610d75565b9050806001600160a01b0316846001600160a01b0316148061130b57506001600160a01b0380821660009081526005602090815260408083209388168352929052205460ff165b8061132f5750836001600160a01b03166113248461067a565b6001600160a01b0316145b949350505050565b826001600160a01b031661134a82610d75565b6001600160a01b0316146113ae5760405162461bcd60e51b815260206004820152602560248201527f4552433732313a207472616e736665722066726f6d20696e636f72726563742060448201526437bbb732b960d91b60648201526084016106ef565b6001600160a01b0382166114105760405162461bcd60e51b8152602060048201526024808201527f4552433732313a207472616e7366657220746f20746865207a65726f206164646044820152637265737360e01b60648201526084016106ef565b61141b838383611ad3565b6114266000826111ca565b6001600160a01b038316600090815260036020526040812080546001929061144f9084906129dd565b90915550506001600160a01b038216600090815260036020526040812080546001929061147d9084906129f4565b909155505060008181526002602052604080822080546001600160a01b0319166001600160a01b0386811691821790925591518493918716917fddf252ad1be2c89b69c2b068fc378daa952ba7f163c4a11628f55a4df523b3ef91a4505050565b600d846040516114ee9190612915565b90815260405190819003602001812061150691612a0c565b60405180910390208380519060200120146115525760405162461bcd60e51b815260206004820152600c60248201526b2727aa2fa0afa624a725a2a960a11b60448201526064016106ef565b6060600080808061156586880188612a18565b6040519499509297509095509350915060009061158a90879087908790602001612a98565b60408051601f198184030181529181526000868152600c6020908152919020825192935086926115bc9285019061206a565b506115c78482611b8b565b7f612762b4a1128abb0969976a012a4200847caba55bc9b00494134d6ed0ad85de8b8685426040516115fc9493929190612ac6565b60405180910390a15050505050505050505050565b600b80546001600160a01b038381166001600160a01b0319831681179093556040519116919082907f8be0079c531659141344cd1fd0a4f28419497f9722a3daafe3b4186f6b6457e090600090a35050565b816001600160a01b0316836001600160a01b031614156116c55760405162461bcd60e51b815260206004820152601960248201527f4552433732313a20617070726f766520746f2063616c6c65720000000000000060448201526064016106ef565b6001600160a01b03838116600081815260056020908152604080832094871680845294825291829020805460ff191686151590811790915591519182527f17307eab39ab6107e8899845ad3d59bd9653f200f220920489ca2b5937696c31910160405180910390a3505050565b61173d848484611337565b61174984848484611ba5565b610fe55760405162461bcd60e51b81526004016106ef90612afe565b6060600f80546105f790612717565b6060816117985750506040805180820190915260018152600360fc1b602082015290565b8160005b81156117c257806117ac816128b9565b91506117bb9050600a83612b66565b915061179c565b6000816001600160401b038111156117dc576117dc612461565b6040519080825280601f01601f191660200182016040528015611806576020820181803683370190505b5090505b841561132f5761181b6001836129dd565b9150611828600a86612b7a565b6118339060306129f4565b60f81b8183815181106118485761184861288d565b60200101906001600160f81b031916908160001a90535061186a600a86612b66565b945061180a565b61187a84611cb2565b6000848152600c60205260408120805460609291829161189990612717565b80601f01602080910402602001604051908101604052809291908181526020018280546118c590612717565b80156119125780601f106118e757610100808354040283529160200191611912565b820191906000526020600020905b8154815290600101906020018083116118f557829003601f168201915b505050505080602001905181019061192a9190612b8e565b604051929550909350915060009061194e908590859085908a903390602001612c24565b60408051601f198184030181529190529050600061196c86346129dd565b600e546040519192506001600160a01b031690630c93e3bb90839030908c90600d90611999908390612915565b9081526040519081900360200181206001600160e01b031960e087901b1682526119cb93929189903390600401612ce0565b6000604051808303818588803b1580156119e457600080fd5b505af11580156119f8573d6000803e3d6000fd5b5050600a546040516001600160a01b039091169350631c92115f92508b9150600d90611a25908390612915565b9081526040519081900360200181206001600160e01b031960e085901b168252611a5492918790600401612d3e565b600060405180830381600087803b158015611a6e57600080fd5b505af1158015611a82573d6000803e3d6000fd5b505050507f29d349391365e822afe3b14c7ac01aced909583e03f6454eb4fa8d4d8a6678fd60108985338b42604051611ac096959493929190612d81565b60405180910390a1505050505050505050565b6001600160a01b038316611b2e57611b2981600880546000838152600960205260408120829055600182018355919091527ff3f7a9fe364faab93b216da50a3214154f22a0a2b415b23a84c8169e8b636ee30155565b611b51565b816001600160a01b0316836001600160a01b031614611b5157611b518382611d59565b6001600160a01b038216611b685761082581611df6565b826001600160a01b0316826001600160a01b031614610825576108258282611ea5565b610d71828260405180602001604052806000815250611ee9565b60006001600160a01b0384163b15611ca757604051630a85bd0160e11b81526001600160a01b0385169063150b7a0290611be9903390899088908890600401612dd3565b602060405180830381600087803b158015611c0357600080fd5b505af1925050508015611c33575060408051601f3d908101601f19168201909252611c3091810190612e06565b60015b611c8d573d808015611c61576040519150601f19603f3d011682016040523d82523d6000602084013e611c66565b606091505b508051611c855760405162461bcd60e51b81526004016106ef90612afe565b805181602001fd5b6001600160e01b031916630a85bd0160e11b14905061132f565b506001949350505050565b6000611cbd82610d75565b9050611ccb81600084611ad3565b611cd66000836111ca565b6001600160a01b0381166000908152600360205260408120805460019290611cff9084906129dd565b909155505060008281526002602052604080822080546001600160a01b0319169055518391906001600160a01b038416907fddf252ad1be2c89b69c2b068fc378daa952ba7f163c4a11628f55a4df523b3ef908390a45050565b60006001611d6684610dec565b611d7091906129dd565b600083815260076020526040902054909150808214611dc3576001600160a01b03841660009081526006602090815260408083208584528252808320548484528184208190558352600790915290208190555b5060009182526007602090815260408084208490556001600160a01b039094168352600681528383209183525290812055565b600854600090611e08906001906129dd565b60008381526009602052604081205460088054939450909284908110611e3057611e3061288d565b906000526020600020015490508060088381548110611e5157611e5161288d565b6000918252602080832090910192909255828152600990915260408082208490558582528120556008805480611e8957611e89612e23565b6001900381819060005260206000200160009055905550505050565b6000611eb083610dec565b6001600160a01b039093166000908152600660209081526040808320868452825280832085905593825260079052919091209190915550565b611ef38383611f1c565b611f006000848484611ba5565b6108255760405162461bcd60e51b81526004016106ef90612afe565b6001600160a01b038216611f725760405162461bcd60e51b815260206004820181905260248201527f4552433732313a206d696e7420746f20746865207a65726f206164647265737360448201526064016106ef565b6000818152600260205260409020546001600160a01b031615611fd75760405162461bcd60e51b815260206004820152601c60248201527f4552433732313a20746f6b656e20616c7265616479206d696e7465640000000060448201526064016106ef565b611fe360008383611ad3565b6001600160a01b038216600090815260036020526040812080546001929061200c9084906129f4565b909155505060008181526002602052604080822080546001600160a01b0319166001600160a01b03861690811790915590518392907fddf252ad1be2c89b69c2b068fc378daa952ba7f163c4a11628f55a4df523b3ef908290a45050565b82805461207690612717565b90600052602060002090601f01602090048101928261209857600085556120de565b82601f106120b157805160ff19168380011785556120de565b828001600101855582156120de579182015b828111156120de5782518255916020019190600101906120c3565b506120ea9291506120ee565b5090565b5b808211156120ea57600081556001016120ef565b6001600160e01b031981168114610ac957600080fd5b60006020828403121561212b57600080fd5b81356110cf81612103565b60005b83811015612151578181015183820152602001612139565b83811115610fe55750506000910152565b6000815180845261217a816020860160208601612136565b601f01601f19169290920160200192915050565b6020815260006110cf6020830184612162565b6000602082840312156121b357600080fd5b5035919050565b6001600160a01b0381168114610ac957600080fd5b600080604083850312156121e257600080fd5b82356121ed816121ba565b946020939093013593505050565b60008083601f84011261220d57600080fd5b5081356001600160401b0381111561222457600080fd5b60208301915083602082850101111561223c57600080fd5b9250929050565b60008060008060008060008060008060c08b8d03121561226257600080fd5b8a35995060208b01356001600160401b038082111561228057600080fd5b61228c8e838f016121fb565b909b50995060408d01359150808211156122a557600080fd5b6122b18e838f016121fb565b909950975060608d01359150808211156122ca57600080fd5b6122d68e838f016121fb565b909750955060808d01359150808211156122ef57600080fd5b506122fc8d828e016121fb565b9150809450508092505060a08b013590509295989b9194979a5092959850565b60008060006060848603121561233157600080fd5b833561233c816121ba565b9250602084013561234c816121ba565b929592945050506040919091013590565b60006020828403121561236f57600080fd5b81356110cf816121ba565b6020808252825182820181905260009190848201906040850190845b818110156123b257835183529284019291840191600101612396565b50909695505050505050565b60008060008060008060006080888a0312156123d957600080fd5b8735965060208801356001600160401b03808211156123f757600080fd5b6124038b838c016121fb565b909850965060408a013591508082111561241c57600080fd5b6124288b838c016121fb565b909650945060608a013591508082111561244157600080fd5b5061244e8a828b016121fb565b989b979a50959850939692959293505050565b634e487b7160e01b600052604160045260246000fd5b604051601f8201601f191681016001600160401b038111828210171561249f5761249f612461565b604052919050565b60006001600160401b038211156124c0576124c0612461565b50601f01601f191660200190565b60006124e16124dc846124a7565b612477565b90508281528383830111156124f557600080fd5b828260208301376000602084830101529392505050565b600082601f83011261251d57600080fd5b6110cf838335602085016124ce565b60006020828403121561253e57600080fd5b81356001600160401b0381111561255457600080fd5b61132f8482850161250c565b6000806040838503121561257357600080fd5b82356001600160401b038082111561258a57600080fd5b6125968683870161250c565b935060208501359150808211156125ac57600080fd5b506125b98582860161250c565b9150509250929050565b8015158114610ac957600080fd5b600080604083850312156125e457600080fd5b82356125ef816121ba565b915060208301356125ff816125c3565b809150509250929050565b6000806000806080858703121561262057600080fd5b843561262b816121ba565b9350602085013561263b816121ba565b92506040850135915060608501356001600160401b0381111561265d57600080fd5b8501601f8101871361266e57600080fd5b61267d878235602084016124ce565b91505092959194509250565b6000806040838503121561269c57600080fd5b82356126a7816121ba565b915060208301356125ff816121ba565b600080600080608085870312156126cd57600080fd5b8435935060208501356001600160401b038111156126ea57600080fd5b6126f68782880161250c565b9350506040850135612707816121ba565b9396929550929360600135925050565b600181811c9082168061272b57607f821691505b6020821081141561274c57634e487b7160e01b600052602260045260246000fd5b50919050565b8183823760009101908152919050565b81835281816020850137506000828201602090810191909152601f909101601f19169091010190565b89815260c0602082015260006127a560c083018a8c612762565b82810360408401526127b881898b612762565b905086606084015282810360808401526127d3818688612762565b9150508260a08301529a9950505050505050505050565b6000602082840312156127fc57600080fd5b81516110cf816125c3565b60208082526031908201527f4552433732313a207472616e736665722063616c6c6572206973206e6f74206f6040820152701ddb995c881b9bdc88185c1c1c9bdd9959607a1b606082015260800190565b6020808252818101527f4f776e61626c653a2063616c6c6572206973206e6f7420746865206f776e6572604082015260600190565b634e487b7160e01b600052603260045260246000fd5b634e487b7160e01b600052601160045260246000fd5b60006000198214156128cd576128cd6128a3565b5060010190565b8681526080602082015260006128ee608083018789612762565b8281036040840152612901818688612762565b915050826060830152979650505050505050565b60008251612927818460208701612136565b9190910192915050565b6000815461293e81612717565b60018281168015612956576001811461296757612996565b60ff19841687528287019450612996565b8560005260208060002060005b8581101561298d5781548a820152908401908201612974565b50505082870194505b5050505092915050565b600084516129b2818460208901612136565b8451908301906129c6818360208901612136565b6129d281830186612931565b979650505050505050565b6000828210156129ef576129ef6128a3565b500390565b60008219821115612a0757612a076128a3565b500190565b60006110cf8284612931565b600080600080600060a08688031215612a3057600080fd5b85356001600160401b03811115612a4657600080fd5b612a528882890161250c565b9550506020860135612a63816121ba565b9350604086013592506060860135612a7a816121ba565b91506080860135612a8a816121ba565b809150509295509295909350565b606081526000612aab6060830186612162565b6001600160a01b039490941660208301525060400152919050565b608081526000612ad96080830187612162565b6020830195909552506001600160a01b03929092166040830152606090910152919050565b60208082526032908201527f4552433732313a207472616e7366657220746f206e6f6e20455243373231526560408201527131b2b4bb32b91034b6b83632b6b2b73a32b960711b606082015260800190565b634e487b7160e01b600052601260045260246000fd5b600082612b7557612b75612b50565b500490565b600082612b8957612b89612b50565b500690565b600080600060608486031215612ba357600080fd5b83516001600160401b03811115612bb957600080fd5b8401601f81018613612bca57600080fd5b8051612bd86124dc826124a7565b818152876020838501011115612bed57600080fd5b612bfe826020830160208601612136565b8095505050506020840151612c12816121ba565b80925050604084015190509250925092565b60a081526000612c3760a0830188612162565b6001600160a01b0396871660208401526040830195909552509184166060830152909216608090920191909152919050565b60008154612c7681612717565b808552602060018381168015612c935760018114612ca757612cd5565b60ff19851688840152604088019550612cd5565b866000528260002060005b85811015612ccd5781548a8201860152908301908401612cb2565b890184019650505b505050505092915050565b600060018060a01b03808816835260a06020840152612d0260a0840188612162565b8381036040850152612d148188612c69565b90508381036060850152612d288187612162565b9250508084166080840152509695505050505050565b606081526000612d516060830186612162565b8281036020840152612d638186612c69565b90508281036040840152612d778185612162565b9695505050505050565b60c081526000612d9460c0830189612c69565b8281036020840152612da68189612162565b604084019790975250506001600160a01b03938416606082015291909216608082015260a0015292915050565b6001600160a01b0385811682528416602082015260408101839052608060608201819052600090612d7790830184612162565b600060208284031215612e1857600080fd5b81516110cf81612103565b634e487b7160e01b600052603160045260246000fdfea2646970667358221220311b75f17f9be452daeec4eb4cd558cc7bd670c6b2aeb6b377a8dad62b16069464736f6c63430008090033",
  "linkReferences": {},
  "deployedLinkReferences": {}
}