{
  "_format": "hh-sol-artifact-1",
  "contractName": "NftLinker",
  "sourceName": "contracts/ConverseNftAnyChain.sol",
  "abi": [
    {
      "inputs": [
        {
          "internalType": "string",
          "name": "chainName_",
          "type": "string"
        },
        {
          "internalType": "address",
          "name": "gateway",
          "type": "address"
        },
        {
          "internalType": "contract IAxelarGasReceiver",
          "name": "receiver",
          "type": "address"
        },
        {
          "internalType": "string",
          "name": "_initBaseURI",
          "type": "string"
        }
      ],
      "stateMutability": "nonpayable",
      "type": "constructor"
    },
    {
      "inputs": [],
      "name": "NotApprovedByGateway",
      "type": "error"
    },
    {
      "anonymous": false,
      "inputs": [
        {
          "indexed": true,
          "internalType": "address",
          "name": "owner",
          "type": "address"
        },
        {
          "indexed": true,
          "internalType": "address",
          "name": "approved",
          "type": "address"
        },
        {
          "indexed": true,
          "internalType": "uint256",
          "name": "tokenId",
          "type": "uint256"
        }
      ],
      "name": "Approval",
      "type": "event"
    },
    {
      "anonymous": false,
      "inputs": [
        {
          "indexed": true,
          "internalType": "address",
          "name": "owner",
          "type": "address"
        },
        {
          "indexed": true,
          "internalType": "address",
          "name": "operator",
          "type": "address"
        },
        {
          "indexed": false,
          "internalType": "bool",
          "name": "approved",
          "type": "bool"
        }
      ],
      "name": "ApprovalForAll",
      "type": "event"
    },
    {
      "anonymous": false,
      "inputs": [
        {
          "indexed": false,
          "internalType": "string",
          "name": "fromChain",
          "type": "string"
        },
        {
          "indexed": false,
          "internalType": "string",
          "name": "toChain",
          "type": "string"
        },
        {
          "indexed": false,
          "internalType": "uint256",
          "name": "tokenId",
          "type": "uint256"
        },
        {
          "indexed": false,
          "internalType": "address",
          "name": "sourceAddress",
          "type": "address"
        },
        {
          "indexed": false,
          "internalType": "address",
          "name": "destinationAddress",
          "type": "address"
        },
        {
          "indexed": false,
          "internalType": "uint256",
          "name": "date",
          "type": "uint256"
        }
      ],
      "name": "ConverseNFT",
      "type": "event"
    },
    {
      "anonymous": false,
      "inputs": [
        {
          "indexed": false,
          "internalType": "string",
          "name": "fromChain",
          "type": "string"
        },
        {
          "indexed": false,
          "internalType": "uint256",
          "name": "tokenId",
          "type": "uint256"
        },
        {
          "indexed": false,
          "internalType": "address",
          "name": "fromAddress",
          "type": "address"
        },
        {
          "indexed": false,
          "internalType": "uint256",
          "name": "date",
          "type": "uint256"
        }
      ],
      "name": "ReceiveNFT",
      "type": "event"
    },
    {
      "anonymous": false,
      "inputs": [
        {
          "indexed": true,
          "internalType": "address",
          "name": "from",
          "type": "address"
        },
        {
          "indexed": true,
          "internalType": "address",
          "name": "to",
          "type": "address"
        },
        {
          "indexed": true,
          "internalType": "uint256",
          "name": "tokenId",
          "type": "uint256"
        }
      ],
      "name": "Transfer",
      "type": "event"
    },
    {
      "inputs": [
        {
          "internalType": "string",
          "name": "chain",
          "type": "string"
        },
        {
          "internalType": "string",
          "name": "linker",
          "type": "string"
        }
      ],
      "name": "addLinker",
      "outputs": [],
      "stateMutability": "nonpayable",
      "type": "function"
    },
    {
      "inputs": [
        {
          "internalType": "address",
          "name": "to",
          "type": "address"
        },
        {
          "internalType": "uint256",
          "name": "tokenId",
          "type": "uint256"
        }
      ],
      "name": "approve",
      "outputs": [],
      "stateMutability": "nonpayable",
      "type": "function"
    },
    {
      "inputs": [
        {
          "internalType": "address",
          "name": "owner",
          "type": "address"
        }
      ],
      "name": "balanceOf",
      "outputs": [
        {
          "internalType": "uint256",
          "name": "",
          "type": "uint256"
        }
      ],
      "stateMutability": "view",
      "type": "function"
    },
    {
      "inputs": [],
      "name": "baseExtension",
      "outputs": [
        {
          "internalType": "string",
          "name": "",
          "type": "string"
        }
      ],
      "stateMutability": "view",
      "type": "function"
    },
    {
      "inputs": [
        {
          "internalType": "bytes32",
          "name": "commandId",
          "type": "bytes32"
        },
        {
          "internalType": "string",
          "name": "sourceChain",
          "type": "string"
        },
        {
          "internalType": "string",
          "name": "sourceAddress",
          "type": "string"
        },
        {
          "internalType": "bytes",
          "name": "payload",
          "type": "bytes"
        }
      ],
      "name": "execute",
      "outputs": [],
      "stateMutability": "nonpayable",
      "type": "function"
    },
    {
      "inputs": [
        {
          "internalType": "bytes32",
          "name": "commandId",
          "type": "bytes32"
        },
        {
          "internalType": "string",
          "name": "sourceChain",
          "type": "string"
        },
        {
          "internalType": "string",
          "name": "sourceAddress",
          "type": "string"
        },
        {
          "internalType": "bytes",
          "name": "payload",
          "type": "bytes"
        },
        {
          "internalType": "string",
          "name": "tokenSymbol",
          "type": "string"
        },
        {
          "internalType": "uint256",
          "name": "amount",
          "type": "uint256"
        }
      ],
      "name": "executeWithToken",
      "outputs": [],
      "stateMutability": "nonpayable",
      "type": "function"
    },
    {
      "inputs": [],
      "name": "gateway",
      "outputs": [
        {
          "internalType": "contract IAxelarGateway",
          "name": "",
          "type": "address"
        }
      ],
      "stateMutability": "view",
      "type": "function"
    },
    {
      "inputs": [
        {
          "internalType": "uint256",
          "name": "tokenId",
          "type": "uint256"
        }
      ],
      "name": "getApproved",
      "outputs": [
        {
          "internalType": "address",
          "name": "",
          "type": "address"
        }
      ],
      "stateMutability": "view",
      "type": "function"
    },
    {
      "inputs": [
        {
          "internalType": "address",
          "name": "owner",
          "type": "address"
        },
        {
          "internalType": "address",
          "name": "operator",
          "type": "address"
        }
      ],
      "name": "isApprovedForAll",
      "outputs": [
        {
          "internalType": "bool",
          "name": "",
          "type": "bool"
        }
      ],
      "stateMutability": "view",
      "type": "function"
    },
    {
      "inputs": [
        {
          "internalType": "string",
          "name": "",
          "type": "string"
        }
      ],
      "name": "linkers",
      "outputs": [
        {
          "internalType": "string",
          "name": "",
          "type": "string"
        }
      ],
      "stateMutability": "view",
      "type": "function"
    },
    {
      "inputs": [],
      "name": "name",
      "outputs": [
        {
          "internalType": "string",
          "name": "",
          "type": "string"
        }
      ],
      "stateMutability": "view",
      "type": "function"
    },
    {
      "inputs": [
        {
          "internalType": "uint256",
          "name": "",
          "type": "uint256"
        }
      ],
      "name": "original",
      "outputs": [
        {
          "internalType": "bytes",
          "name": "",
          "type": "bytes"
        }
      ],
      "stateMutability": "view",
      "type": "function"
    },
    {
      "inputs": [
        {
          "internalType": "uint256",
          "name": "tokenId",
          "type": "uint256"
        }
      ],
      "name": "ownerOf",
      "outputs": [
        {
          "internalType": "address",
          "name": "",
          "type": "address"
        }
      ],
      "stateMutability": "view",
      "type": "function"
    },
    {
      "inputs": [
        {
          "internalType": "address",
          "name": "from",
          "type": "address"
        },
        {
          "internalType": "address",
          "name": "to",
          "type": "address"
        },
        {
          "internalType": "uint256",
          "name": "tokenId",
          "type": "uint256"
        }
      ],
      "name": "safeTransferFrom",
      "outputs": [],
      "stateMutability": "nonpayable",
      "type": "function"
    },
    {
      "inputs": [
        {
          "internalType": "address",
          "name": "from",
          "type": "address"
        },
        {
          "internalType": "address",
          "name": "to",
          "type": "address"
        },
        {
          "internalType": "uint256",
          "name": "tokenId",
          "type": "uint256"
        },
        {
          "internalType": "bytes",
          "name": "_data",
          "type": "bytes"
        }
      ],
      "name": "safeTransferFrom",
      "outputs": [],
      "stateMutability": "nonpayable",
      "type": "function"
    },
    {
      "inputs": [
        {
          "internalType": "uint256",
          "name": "tokenId",
          "type": "uint256"
        },
        {
          "internalType": "string",
          "name": "destinationChain",
          "type": "string"
        },
        {
          "internalType": "address",
          "name": "destinationAddress",
          "type": "address"
        }
      ],
      "name": "sendNFT",
      "outputs": [],
      "stateMutability": "payable",
      "type": "function"
    },
    {
      "inputs": [
        {
          "internalType": "address",
          "name": "operator",
          "type": "address"
        },
        {
          "internalType": "bool",
          "name": "approved",
          "type": "bool"
        }
      ],
      "name": "setApprovalForAll",
      "outputs": [],
      "stateMutability": "nonpayable",
      "type": "function"
    },
    {
      "inputs": [
        {
          "internalType": "string",
          "name": "_newBaseURI",
          "type": "string"
        }
      ],
      "name": "setBaseURI",
      "outputs": [],
      "stateMutability": "nonpayable",
      "type": "function"
    },
    {
      "inputs": [
        {
          "internalType": "bytes4",
          "name": "interfaceId",
          "type": "bytes4"
        }
      ],
      "name": "supportsInterface",
      "outputs": [
        {
          "internalType": "bool",
          "name": "",
          "type": "bool"
        }
      ],
      "stateMutability": "view",
      "type": "function"
    },
    {
      "inputs": [],
      "name": "symbol",
      "outputs": [
        {
          "internalType": "string",
          "name": "",
          "type": "string"
        }
      ],
      "stateMutability": "view",
      "type": "function"
    },
    {
      "inputs": [
        {
          "internalType": "uint256",
          "name": "tokenId",
          "type": "uint256"
        }
      ],
      "name": "tokenURI",
      "outputs": [
        {
          "internalType": "string",
          "name": "",
          "type": "string"
        }
      ],
      "stateMutability": "view",
      "type": "function"
    },
    {
      "inputs": [
        {
          "internalType": "address",
          "name": "from",
          "type": "address"
        },
        {
          "internalType": "address",
          "name": "to",
          "type": "address"
        },
        {
          "internalType": "uint256",
          "name": "tokenId",
          "type": "uint256"
        }
      ],
      "name": "transferFrom",
      "outputs": [],
      "stateMutability": "nonpayable",
      "type": "function"
    }
  ],
  "bytecode": "0x60c06040526005608081905264173539b7b760d91b60a09081526200002891600c91906200014a565b503480156200003657600080fd5b5060405162002a3938038062002a398339810160408190526200005991620002d6565b604080518082018252601181527026a1a927a9a99021a7a62622a1aa24a7a760791b6020808301918252835180850190945260068452654d43524f535360d01b908401528151869391620000b191600091906200014a565b508051620000c79060019060208401906200014a565b5050600680546001600160a01b0319166001600160a01b0393909316929092179091555083516200010090600b9060208701906200014a565b50600980546001600160a01b0319166001600160a01b038416179055620001278162000131565b50505050620003a8565b80516200014690600a9060208401906200014a565b5050565b82805462000158906200036b565b90600052602060002090601f0160209004810192826200017c5760008555620001c7565b82601f106200019757805160ff1916838001178555620001c7565b82800160010185558215620001c7579182015b82811115620001c7578251825591602001919060010190620001aa565b50620001d5929150620001d9565b5090565b5b80821115620001d55760008155600101620001da565b634e487b7160e01b600052604160045260246000fd5b600082601f8301126200021857600080fd5b81516001600160401b0380821115620002355762000235620001f0565b604051601f8301601f19908116603f01168101908282118183101715620002605762000260620001f0565b816040528381526020925086838588010111156200027d57600080fd5b600091505b83821015620002a1578582018301518183018401529082019062000282565b83821115620002b35760008385830101525b9695505050505050565b6001600160a01b0381168114620002d357600080fd5b50565b60008060008060808587031215620002ed57600080fd5b84516001600160401b03808211156200030557600080fd5b620003138883890162000206565b9550602087015191506200032782620002bd565b60408701519194506200033a82620002bd565b6060870151919350808211156200035057600080fd5b506200035f8782880162000206565b91505092959194509250565b600181811c908216806200038057607f821691505b60208210811415620003a257634e487b7160e01b600052602260045260246000fd5b50919050565b61268180620003b86000396000f3fe6080604052600436106101355760003560e01c80636352211e116100ab5780639b15a0a71161006f5780639b15a0a714610361578063a22cb46514610381578063b88d4fde146103a1578063c6682862146103c1578063c87b56dd146103d6578063e985e9c5146103f657600080fd5b80636352211e146102be57806370a08231146102de578063717eb03f1461030c5780638afe18961461032c57806395d89b411461034c57600080fd5b80631a98b2e0116100fd5780631a98b2e01461020b57806323b872dd1461022b57806335878eaf1461024b57806342842e0e1461025e578063491606581461027e57806355f804b31461029e57600080fd5b806301ffc9a71461013a57806306fdde031461016f578063081812fc14610191578063095ea7b3146101c9578063116191b6146101eb575b600080fd5b34801561014657600080fd5b5061015a6101553660046119b5565b61043f565b60405190151581526020015b60405180910390f35b34801561017b57600080fd5b50610184610491565b6040516101669190611a2a565b34801561019d57600080fd5b506101b16101ac366004611a3d565b610523565b6040516001600160a01b039091168152602001610166565b3480156101d557600080fd5b506101e96101e4366004611a6b565b6105bd565b005b3480156101f757600080fd5b506006546101b1906001600160a01b031681565b34801561021757600080fd5b506101e9610226366004611ae0565b6106d3565b34801561023757600080fd5b506101e9610246366004611bba565b610855565b6101e9610259366004611cc8565b610886565b34801561026a57600080fd5b506101e9610279366004611bba565b610891565b34801561028a57600080fd5b506101e9610299366004611d23565b6108ac565b3480156102aa57600080fd5b506101e96102b9366004611dc7565b6109ef565b3480156102ca57600080fd5b506101b16102d9366004611a3d565b610a06565b3480156102ea57600080fd5b506102fe6102f9366004611dfc565b610a7d565b604051908152602001610166565b34801561031857600080fd5b50610184610327366004611a3d565b610b04565b34801561033857600080fd5b50610184610347366004611dc7565b610b9e565b34801561035857600080fd5b50610184610bc2565b34801561036d57600080fd5b506101e961037c366004611e19565b610bd1565b34801561038d57600080fd5b506101e961039c366004611e8b565b610c03565b3480156103ad57600080fd5b506101e96103bc366004611ec4565b610c0e565b3480156103cd57600080fd5b50610184610c46565b3480156103e257600080fd5b506101846103f1366004611a3d565b610c53565b34801561040257600080fd5b5061015a610411366004611f44565b6001600160a01b03918216600090815260056020908152604080832093909416825291909152205460ff1690565b60006001600160e01b031982166380ac58cd60e01b148061047057506001600160e01b03198216635b5e139f60e01b145b8061048b57506301ffc9a760e01b6001600160e01b03198316145b92915050565b6060600080546104a090611f72565b80601f01602080910402602001604051908101604052809291908181526020018280546104cc90611f72565b80156105195780601f106104ee57610100808354040283529160200191610519565b820191906000526020600020905b8154815290600101906020018083116104fc57829003601f168201915b5050505050905090565b6000818152600260205260408120546001600160a01b03166105a15760405162461bcd60e51b815260206004820152602c60248201527f4552433732313a20617070726f76656420717565727920666f72206e6f6e657860448201526b34b9ba32b73a103a37b5b2b760a11b60648201526084015b60405180910390fd5b506000908152600460205260409020546001600160a01b031690565b60006105c882610a06565b9050806001600160a01b0316836001600160a01b031614156106365760405162461bcd60e51b815260206004820152602160248201527f4552433732313a20617070726f76616c20746f2063757272656e74206f776e656044820152603960f91b6064820152608401610598565b336001600160a01b038216148061065257506106528133610411565b6106c45760405162461bcd60e51b815260206004820152603860248201527f4552433732313a20617070726f76652063616c6c6572206973206e6f74206f7760448201527f6e6572206e6f7220617070726f76656420666f7220616c6c00000000000000006064820152608401610598565b6106ce8383610d31565b505050565b600085856040516106e5929190611fad565b604051908190038120600654631876eed960e01b83529092506001600160a01b031690631876eed99061072c908e908e908e908e908e9089908d908d908d90600401611fe6565b602060405180830381600087803b15801561074657600080fd5b505af115801561075a573d6000803e3d6000fd5b505050506040513d601f19601f8201168201806040525081019061077e9190612045565b61079b57604051631403112d60e21b815260040160405180910390fd5b6108488a8a8080601f01602080910402602001604051908101604052809392919081815260200183838082843760009201919091525050604080516020601f8e018190048102820181019092528c815292508c91508b908190840183828082843760009201919091525050604080516020601f8b018190048102820181019092528981528c93508b9250908a908a90819084018382808284376000920191909152508a9250610d9f915050565b5050505050505050505050565b61085f3382610da7565b61087b5760405162461bcd60e51b815260040161059890612062565b6106ce838383610e9e565b6106ce83838361103a565b6106ce83838360405180602001604052806000815250610c0e565b600082826040516108be929190611fad565b604051908190038120600654635f6970c360e01b83529092506001600160a01b031690635f6970c3906108ff908b908b908b908b908b9089906004016120b3565b602060405180830381600087803b15801561091957600080fd5b505af115801561092d573d6000803e3d6000fd5b505050506040513d601f19601f820116820180604052508101906109519190612045565b61096e57604051631403112d60e21b815260040160405180910390fd5b6109e587878080601f01602080910402602001604051908101604052809392919081815260200183838082843760009201919091525050604080516020601f8b01819004810282018101909252898152925089915088908190840183828082843760009201919091525088925087915061128a9050565b5050505050505050565b8051610a0290600a906020840190611903565b5050565b6000818152600260205260408120546001600160a01b03168061048b5760405162461bcd60e51b815260206004820152602960248201527f4552433732313a206f776e657220717565727920666f72206e6f6e657869737460448201526832b73a103a37b5b2b760b91b6064820152608401610598565b60006001600160a01b038216610ae85760405162461bcd60e51b815260206004820152602a60248201527f4552433732313a2062616c616e636520717565727920666f7220746865207a65604482015269726f206164647265737360b01b6064820152608401610598565b506001600160a01b031660009081526003602052604090205490565b60076020526000908152604090208054610b1d90611f72565b80601f0160208091040260200160405190810160405280929190818152602001828054610b4990611f72565b8015610b965780601f10610b6b57610100808354040283529160200191610b96565b820191906000526020600020905b815481529060010190602001808311610b7957829003601f168201915b505050505081565b805160208183018101805160088252928201919093012091528054610b1d90611f72565b6060600180546104a090611f72565b80600883604051610be291906120f4565b908152602001604051809103902090805190602001906106ce929190611903565b610a023383836113bd565b610c183383610da7565b610c345760405162461bcd60e51b815260040161059890612062565b610c408484848461148c565b50505050565b600c8054610b1d90611f72565b6000818152600260205260409020546060906001600160a01b0316610cd25760405162461bcd60e51b815260206004820152602f60248201527f4552433732314d657461646174613a2055524920717565727920666f72206e6f60448201526e3732bc34b9ba32b73a103a37b5b2b760891b6064820152608401610598565b6000610cdc6114bf565b90506000815111610cfc5760405180602001604052806000815250610d2a565b80610d06846114ce565b600c604051602001610d1a9392919061217f565b6040516020818303038152906040525b9392505050565b600081815260046020526040902080546001600160a01b0319166001600160a01b0384169081179091558190610d6682610a06565b6001600160a01b03167f8c5be1e5ebec7d5bd14f71427d1e84f3dd0314c0f7b2291e5b200ac8c7c3b92560405160405180910390a45050565b505050505050565b6000818152600260205260408120546001600160a01b0316610e205760405162461bcd60e51b815260206004820152602c60248201527f4552433732313a206f70657261746f7220717565727920666f72206e6f6e657860448201526b34b9ba32b73a103a37b5b2b760a11b6064820152608401610598565b6000610e2b83610a06565b9050806001600160a01b0316846001600160a01b03161480610e7257506001600160a01b0380821660009081526005602090815260408083209388168352929052205460ff165b80610e965750836001600160a01b0316610e8b84610523565b6001600160a01b0316145b949350505050565b826001600160a01b0316610eb182610a06565b6001600160a01b031614610f155760405162461bcd60e51b815260206004820152602560248201527f4552433732313a207472616e736665722066726f6d20696e636f72726563742060448201526437bbb732b960d91b6064820152608401610598565b6001600160a01b038216610f775760405162461bcd60e51b8152602060048201526024808201527f4552433732313a207472616e7366657220746f20746865207a65726f206164646044820152637265737360e01b6064820152608401610598565b610f82600082610d31565b6001600160a01b0383166000908152600360205260408120805460019290610fab9084906121d2565b90915550506001600160a01b0382166000908152600360205260408120805460019290610fd99084906121e9565b909155505060008181526002602052604080822080546001600160a01b0319166001600160a01b0386811691821790925591518493918716917fddf252ad1be2c89b69c2b068fc378daa952ba7f163c4a11628f55a4df523b3ef91a4505050565b611043836115cc565b6000838152600760205260408120805460609291829161106290611f72565b80601f016020809104026020016040519081016040528092919081815260200182805461108e90611f72565b80156110db5780601f106110b0576101008083540402835291602001916110db565b820191906000526020600020905b8154815290600101906020018083116110be57829003601f168201915b50505050508060200190518101906110f39190612201565b60405192955090935091506000906111179085908590859089903390602001612298565b60408051601f19818403018152908290526009549092506001600160a01b031690630c93e3bb90349030908a906008906111529083906120f4565b9081526040519081900360200181206001600160e01b031960e087901b16825261118493929188903390600401612354565b6000604051808303818588803b15801561119d57600080fd5b505af11580156111b1573d6000803e3d6000fd5b50506006546040516001600160a01b039091169350631c92115f92508991506008906111de9083906120f4565b9081526040519081900360200181206001600160e01b031960e085901b16825261120d929186906004016123b2565b600060405180830381600087803b15801561122757600080fd5b505af115801561123b573d6000803e3d6000fd5b505050507f29d349391365e822afe3b14c7ac01aced909583e03f6454eb4fa8d4d8a6678fd600b8784338942604051611279969594939291906123f5565b60405180910390a150505050505050565b60088460405161129a91906120f4565b9081526040519081900360200181206112b291612447565b60405180910390208380519060200120146112fe5760405162461bcd60e51b815260206004820152600c60248201526b2727aa2fa0afa624a725a2a960a11b6044820152606401610598565b6060600080808061131186880188612453565b60405194995092975090955093509150600090611336908790879087906020016124d4565b60408051601f198184030181529181526000868152600760209081529190208251929350869261136892850190611903565b506113738482611667565b7f612762b4a1128abb0969976a012a4200847caba55bc9b00494134d6ed0ad85de8b8685426040516113a89493929190612502565b60405180910390a15050505050505050505050565b816001600160a01b0316836001600160a01b0316141561141f5760405162461bcd60e51b815260206004820152601960248201527f4552433732313a20617070726f766520746f2063616c6c6572000000000000006044820152606401610598565b6001600160a01b03838116600081815260056020908152604080832094871680845294825291829020805460ff191686151590811790915591519182527f17307eab39ab6107e8899845ad3d59bd9653f200f220920489ca2b5937696c31910160405180910390a3505050565b611497848484610e9e565b6114a384848484611681565b610c405760405162461bcd60e51b81526004016105989061253a565b6060600a80546104a090611f72565b6060816114f25750506040805180820190915260018152600360fc1b602082015290565b8160005b811561151c57806115068161258c565b91506115159050600a836125bd565b91506114f6565b60008167ffffffffffffffff81111561153757611537611bfb565b6040519080825280601f01601f191660200182016040528015611561576020820181803683370190505b5090505b8415610e96576115766001836121d2565b9150611583600a866125d1565b61158e9060306121e9565b60f81b8183815181106115a3576115a36125e5565b60200101906001600160f81b031916908160001a9053506115c5600a866125bd565b9450611565565b60006115d782610a06565b90506115e4600083610d31565b6001600160a01b038116600090815260036020526040812080546001929061160d9084906121d2565b909155505060008281526002602052604080822080546001600160a01b0319169055518391906001600160a01b038416907fddf252ad1be2c89b69c2b068fc378daa952ba7f163c4a11628f55a4df523b3ef908390a45050565b610a0282826040518060200160405280600081525061178e565b60006001600160a01b0384163b1561178357604051630a85bd0160e11b81526001600160a01b0385169063150b7a02906116c59033908990889088906004016125fb565b602060405180830381600087803b1580156116df57600080fd5b505af192505050801561170f575060408051601f3d908101601f1916820190925261170c9181019061262e565b60015b611769573d80801561173d576040519150601f19603f3d011682016040523d82523d6000602084013e611742565b606091505b5080516117615760405162461bcd60e51b81526004016105989061253a565b805181602001fd5b6001600160e01b031916630a85bd0160e11b149050610e96565b506001949350505050565b61179883836117c1565b6117a56000848484611681565b6106ce5760405162461bcd60e51b81526004016105989061253a565b6001600160a01b0382166118175760405162461bcd60e51b815260206004820181905260248201527f4552433732313a206d696e7420746f20746865207a65726f20616464726573736044820152606401610598565b6000818152600260205260409020546001600160a01b03161561187c5760405162461bcd60e51b815260206004820152601c60248201527f4552433732313a20746f6b656e20616c7265616479206d696e746564000000006044820152606401610598565b6001600160a01b03821660009081526003602052604081208054600192906118a59084906121e9565b909155505060008181526002602052604080822080546001600160a01b0319166001600160a01b03861690811790915590518392907fddf252ad1be2c89b69c2b068fc378daa952ba7f163c4a11628f55a4df523b3ef908290a45050565b82805461190f90611f72565b90600052602060002090601f0160209004810192826119315760008555611977565b82601f1061194a57805160ff1916838001178555611977565b82800160010185558215611977579182015b8281111561197757825182559160200191906001019061195c565b50611983929150611987565b5090565b5b808211156119835760008155600101611988565b6001600160e01b0319811681146119b257600080fd5b50565b6000602082840312156119c757600080fd5b8135610d2a8161199c565b60005b838110156119ed5781810151838201526020016119d5565b83811115610c405750506000910152565b60008151808452611a168160208601602086016119d2565b601f01601f19169290920160200192915050565b602081526000610d2a60208301846119fe565b600060208284031215611a4f57600080fd5b5035919050565b6001600160a01b03811681146119b257600080fd5b60008060408385031215611a7e57600080fd5b8235611a8981611a56565b946020939093013593505050565b60008083601f840112611aa957600080fd5b50813567ffffffffffffffff811115611ac157600080fd5b602083019150836020828501011115611ad957600080fd5b9250929050565b60008060008060008060008060008060c08b8d031215611aff57600080fd5b8a35995060208b013567ffffffffffffffff80821115611b1e57600080fd5b611b2a8e838f01611a97565b909b50995060408d0135915080821115611b4357600080fd5b611b4f8e838f01611a97565b909950975060608d0135915080821115611b6857600080fd5b611b748e838f01611a97565b909750955060808d0135915080821115611b8d57600080fd5b50611b9a8d828e01611a97565b9150809450508092505060a08b013590509295989b9194979a5092959850565b600080600060608486031215611bcf57600080fd5b8335611bda81611a56565b92506020840135611bea81611a56565b929592945050506040919091013590565b634e487b7160e01b600052604160045260246000fd5b604051601f8201601f1916810167ffffffffffffffff81118282101715611c3a57611c3a611bfb565b604052919050565b600067ffffffffffffffff821115611c5c57611c5c611bfb565b50601f01601f191660200190565b6000611c7d611c7884611c42565b611c11565b9050828152838383011115611c9157600080fd5b828260208301376000602084830101529392505050565b600082601f830112611cb957600080fd5b610d2a83833560208501611c6a565b600080600060608486031215611cdd57600080fd5b83359250602084013567ffffffffffffffff811115611cfb57600080fd5b611d0786828701611ca8565b9250506040840135611d1881611a56565b809150509250925092565b60008060008060008060006080888a031215611d3e57600080fd5b87359650602088013567ffffffffffffffff80821115611d5d57600080fd5b611d698b838c01611a97565b909850965060408a0135915080821115611d8257600080fd5b611d8e8b838c01611a97565b909650945060608a0135915080821115611da757600080fd5b50611db48a828b01611a97565b989b979a50959850939692959293505050565b600060208284031215611dd957600080fd5b813567ffffffffffffffff811115611df057600080fd5b610e9684828501611ca8565b600060208284031215611e0e57600080fd5b8135610d2a81611a56565b60008060408385031215611e2c57600080fd5b823567ffffffffffffffff80821115611e4457600080fd5b611e5086838701611ca8565b93506020850135915080821115611e6657600080fd5b50611e7385828601611ca8565b9150509250929050565b80151581146119b257600080fd5b60008060408385031215611e9e57600080fd5b8235611ea981611a56565b91506020830135611eb981611e7d565b809150509250929050565b60008060008060808587031215611eda57600080fd5b8435611ee581611a56565b93506020850135611ef581611a56565b925060408501359150606085013567ffffffffffffffff811115611f1857600080fd5b8501601f81018713611f2957600080fd5b611f3887823560208401611c6a565b91505092959194509250565b60008060408385031215611f5757600080fd5b8235611f6281611a56565b91506020830135611eb981611a56565b600181811c90821680611f8657607f821691505b60208210811415611fa757634e487b7160e01b600052602260045260246000fd5b50919050565b8183823760009101908152919050565b81835281816020850137506000828201602090810191909152601f909101601f19169091010190565b89815260c06020820152600061200060c083018a8c611fbd565b828103604084015261201381898b611fbd565b9050866060840152828103608084015261202e818688611fbd565b9150508260a08301529a9950505050505050505050565b60006020828403121561205757600080fd5b8151610d2a81611e7d565b60208082526031908201527f4552433732313a207472616e736665722063616c6c6572206973206e6f74206f6040820152701ddb995c881b9bdc88185c1c1c9bdd9959607a1b606082015260800190565b8681526080602082015260006120cd608083018789611fbd565b82810360408401526120e0818688611fbd565b915050826060830152979650505050505050565b600082516121068184602087016119d2565b9190910192915050565b6000815461211d81611f72565b60018281168015612135576001811461214657612175565b60ff19841687528287019450612175565b8560005260208060002060005b8581101561216c5781548a820152908401908201612153565b50505082870194505b5050505092915050565b600084516121918184602089016119d2565b8451908301906121a58183602089016119d2565b6121b181830186612110565b979650505050505050565b634e487b7160e01b600052601160045260246000fd5b6000828210156121e4576121e46121bc565b500390565b600082198211156121fc576121fc6121bc565b500190565b60008060006060848603121561221657600080fd5b835167ffffffffffffffff81111561222d57600080fd5b8401601f8101861361223e57600080fd5b805161224c611c7882611c42565b81815287602083850101111561226157600080fd5b6122728260208301602086016119d2565b809550505050602084015161228681611a56565b80925050604084015190509250925092565b60a0815260006122ab60a08301886119fe565b6001600160a01b0396871660208401526040830195909552509184166060830152909216608090920191909152919050565b600081546122ea81611f72565b808552602060018381168015612307576001811461231b57612349565b60ff19851688840152604088019550612349565b866000528260002060005b858110156123415781548a8201860152908301908401612326565b890184019650505b505050505092915050565b600060018060a01b03808816835260a0602084015261237660a08401886119fe565b838103604085015261238881886122dd565b9050838103606085015261239c81876119fe565b9250508084166080840152509695505050505050565b6060815260006123c560608301866119fe565b82810360208401526123d781866122dd565b905082810360408401526123eb81856119fe565b9695505050505050565b60c08152600061240860c08301896122dd565b828103602084015261241a81896119fe565b604084019790975250506001600160a01b03938416606082015291909216608082015260a0015292915050565b6000610d2a8284612110565b600080600080600060a0868803121561246b57600080fd5b853567ffffffffffffffff81111561248257600080fd5b61248e88828901611ca8565b955050602086013561249f81611a56565b93506040860135925060608601356124b681611a56565b915060808601356124c681611a56565b809150509295509295909350565b6060815260006124e760608301866119fe565b6001600160a01b039490941660208301525060400152919050565b60808152600061251560808301876119fe565b6020830195909552506001600160a01b03929092166040830152606090910152919050565b60208082526032908201527f4552433732313a207472616e7366657220746f206e6f6e20455243373231526560408201527131b2b4bb32b91034b6b83632b6b2b73a32b960711b606082015260800190565b60006000198214156125a0576125a06121bc565b5060010190565b634e487b7160e01b600052601260045260246000fd5b6000826125cc576125cc6125a7565b500490565b6000826125e0576125e06125a7565b500690565b634e487b7160e01b600052603260045260246000fd5b6001600160a01b03858116825284166020820152604081018390526080606082018190526000906123eb908301846119fe565b60006020828403121561264057600080fd5b8151610d2a8161199c56fea2646970667358221220fac3dc2695441d02edd2ea9ddaaa5c782e951496438412bd7182201727c24edd64736f6c63430008090033",
  "linkReferences": {},
  "deployedLinkReferences": {}
}